{
  "contractName": "CrowdFundERC677",
  "abi": [
    {
      "inputs": [
        {
          "internalType": "address",
          "name": "_token",
          "type": "address"
        }
      ],
      "stateMutability": "nonpayable",
      "type": "constructor"
    },
    {
      "anonymous": false,
      "inputs": [
        {
          "indexed": false,
          "internalType": "uint256",
          "name": "id",
          "type": "uint256"
        }
      ],
      "name": "Cancel",
      "type": "event"
    },
    {
      "anonymous": false,
      "inputs": [
        {
          "indexed": false,
          "internalType": "uint256",
          "name": "id",
          "type": "uint256"
        }
      ],
      "name": "Claim",
      "type": "event"
    },
    {
      "anonymous": false,
      "inputs": [
        {
          "indexed": false,
          "internalType": "uint256",
          "name": "id",
          "type": "uint256"
        },
        {
          "indexed": true,
          "internalType": "address",
          "name": "creator",
          "type": "address"
        },
        {
          "indexed": false,
          "internalType": "uint256",
          "name": "goal",
          "type": "uint256"
        },
        {
          "indexed": false,
          "internalType": "string",
          "name": "title",
          "type": "string"
        },
        {
          "indexed": false,
          "internalType": "string",
          "name": "description",
          "type": "string"
        },
        {
          "indexed": false,
          "internalType": "uint32",
          "name": "startAt",
          "type": "uint32"
        },
        {
          "indexed": false,
          "internalType": "uint32",
          "name": "endAt",
          "type": "uint32"
        },
        {
          "indexed": false,
          "internalType": "uint256",
          "name": "category",
          "type": "uint256"
        }
      ],
      "name": "Launch",
      "type": "event"
    },
    {
      "anonymous": false,
      "inputs": [
        {
          "indexed": true,
          "internalType": "uint256",
          "name": "id",
          "type": "uint256"
        },
        {
          "indexed": true,
          "internalType": "address",
          "name": "caller",
          "type": "address"
        },
        {
          "indexed": false,
          "internalType": "uint256",
          "name": "amount",
          "type": "uint256"
        }
      ],
      "name": "Pledge",
      "type": "event"
    },
    {
      "anonymous": false,
      "inputs": [
        {
          "indexed": false,
          "internalType": "uint256",
          "name": "id",
          "type": "uint256"
        },
        {
          "indexed": true,
          "internalType": "address",
          "name": "caller",
          "type": "address"
        },
        {
          "indexed": false,
          "internalType": "uint256",
          "name": "amount",
          "type": "uint256"
        }
      ],
      "name": "Refund",
      "type": "event"
    },
    {
      "anonymous": false,
      "inputs": [
        {
          "indexed": true,
          "internalType": "uint256",
          "name": "id",
          "type": "uint256"
        },
        {
          "indexed": true,
          "internalType": "address",
          "name": "caller",
          "type": "address"
        },
        {
          "indexed": false,
          "internalType": "uint256",
          "name": "amount",
          "type": "uint256"
        }
      ],
      "name": "Unpledge",
      "type": "event"
    },
    {
      "inputs": [
        {
          "internalType": "uint256",
          "name": "",
          "type": "uint256"
        }
      ],
      "name": "campaigns",
      "outputs": [
        {
          "internalType": "address",
          "name": "creator",
          "type": "address"
        },
        {
          "internalType": "uint256",
          "name": "goal",
          "type": "uint256"
        },
        {
          "internalType": "uint256",
          "name": "category",
          "type": "uint256"
        },
        {
          "internalType": "string",
          "name": "title",
          "type": "string"
        },
        {
          "internalType": "string",
          "name": "description",
          "type": "string"
        },
        {
          "internalType": "uint256",
          "name": "pledged",
          "type": "uint256"
        },
        {
          "internalType": "uint32",
          "name": "startAt",
          "type": "uint32"
        },
        {
          "internalType": "uint32",
          "name": "endAt",
          "type": "uint32"
        },
        {
          "internalType": "bool",
          "name": "claimed",
          "type": "bool"
        }
      ],
      "stateMutability": "view",
      "type": "function",
      "constant": true
    },
    {
      "inputs": [],
      "name": "count",
      "outputs": [
        {
          "internalType": "uint256",
          "name": "",
          "type": "uint256"
        }
      ],
      "stateMutability": "view",
      "type": "function",
      "constant": true
    },
    {
      "inputs": [
        {
          "internalType": "uint256",
          "name": "",
          "type": "uint256"
        },
        {
          "internalType": "address",
          "name": "",
          "type": "address"
        }
      ],
      "name": "pledgedAmount",
      "outputs": [
        {
          "internalType": "uint256",
          "name": "",
          "type": "uint256"
        }
      ],
      "stateMutability": "view",
      "type": "function",
      "constant": true
    },
    {
      "inputs": [],
      "name": "token",
      "outputs": [
        {
          "internalType": "contract IERC677",
          "name": "",
          "type": "address"
        }
      ],
      "stateMutability": "view",
      "type": "function",
      "constant": true
    },
    {
      "inputs": [
        {
          "internalType": "uint256",
          "name": "_goal",
          "type": "uint256"
        },
        {
          "internalType": "uint32",
          "name": "_startAt",
          "type": "uint32"
        },
        {
          "internalType": "uint32",
          "name": "_endAt",
          "type": "uint32"
        },
        {
          "internalType": "string",
          "name": "_title",
          "type": "string"
        },
        {
          "internalType": "string",
          "name": "_description",
          "type": "string"
        },
        {
          "internalType": "uint256",
          "name": "_category",
          "type": "uint256"
        }
      ],
      "name": "launch",
      "outputs": [],
      "stateMutability": "nonpayable",
      "type": "function"
    },
    {
      "inputs": [
        {
          "internalType": "uint256",
          "name": "_id",
          "type": "uint256"
        }
      ],
      "name": "cancel",
      "outputs": [],
      "stateMutability": "nonpayable",
      "type": "function"
    },
    {
      "inputs": [
        {
          "internalType": "uint256",
          "name": "_id",
          "type": "uint256"
        },
        {
          "internalType": "uint256",
          "name": "_amount",
          "type": "uint256"
        }
      ],
      "name": "pledge",
      "outputs": [],
      "stateMutability": "nonpayable",
      "type": "function"
    },
    {
      "inputs": [
        {
          "internalType": "uint256",
          "name": "_id",
          "type": "uint256"
        },
        {
          "internalType": "uint256",
          "name": "_amount",
          "type": "uint256"
        }
      ],
      "name": "unpledge",
      "outputs": [],
      "stateMutability": "nonpayable",
      "type": "function"
    },
    {
      "inputs": [
        {
          "internalType": "uint256",
          "name": "_id",
          "type": "uint256"
        }
      ],
      "name": "claim",
      "outputs": [],
      "stateMutability": "nonpayable",
      "type": "function"
    },
    {
      "inputs": [
        {
          "internalType": "uint256",
          "name": "_id",
          "type": "uint256"
        }
      ],
      "name": "refund",
      "outputs": [],
      "stateMutability": "nonpayable",
      "type": "function"
    }
  ],
  "bytecode": "0x60a060405234801561001057600080fd5b5060405161160438038061160483398101604081905261002f91610040565b6001600160a01b0316608052610070565b60006020828403121561005257600080fd5b81516001600160a01b038116811461006957600080fd5b9392505050565b60805161155d6100a760003960008181610178015281816105b1015281816107d201528181610e63015261101e015261155d6000f3fe608060405234801561001057600080fd5b506004361061009e5760003560e01c80634fccadfb116100665780634fccadfb14610122578063711853ab14610135578063aa4fb63a14610148578063fc0c546a14610173578063fde327be146101b257600080fd5b806306661abd146100a3578063141961bc146100bf578063278ecde1146100e7578063379607f5146100fc57806340e58ee51461010f575b600080fd5b6100ac60005481565b6040519081526020015b60405180910390f35b6100d26100cd36600461119e565b6101c5565b6040516100b699989796959493929190611204565b6100fa6100f536600461119e565b610339565b005b6100fa61010a36600461119e565b61065f565b6100fa61011d36600461119e565b61087a565b6100fa610130366004611335565b610b39565b6100fa6101433660046113cc565b610da9565b6100ac6101563660046113ee565b600260209081526000928352604080842090915290825290205481565b61019a7f000000000000000000000000000000000000000000000000000000000000000081565b6040516001600160a01b0390911681526020016100b6565b6100fa6101c03660046113cc565b610f16565b600160208190526000918252604090912080549181015460028201546003830180546001600160a01b0390951694929391926102009061142a565b80601f016020809104026020016040519081016040528092919081815260200182805461022c9061142a565b80156102795780601f1061024e57610100808354040283529160200191610279565b820191906000526020600020905b81548152906001019060200180831161025c57829003601f168201915b50505050509080600401805461028e9061142a565b80601f01602080910402602001604051908101604052809291908181526020018280546102ba9061142a565b80156103075780601f106102dc57610100808354040283529160200191610307565b820191906000526020600020905b8154815290600101906020018083116102ea57829003601f168201915b50505050600583015460069093015491929163ffffffff8082169250600160201b82041690600160401b900460ff1689565b600081815260016020818152604080842081516101208101835281546001600160a01b0316815293810154928401929092526002820154908301526003810180546060840191906103899061142a565b80601f01602080910402602001604051908101604052809291908181526020018280546103b59061142a565b80156104025780601f106103d757610100808354040283529160200191610402565b820191906000526020600020905b8154815290600101906020018083116103e557829003601f168201915b5050505050815260200160048201805461041b9061142a565b80601f01602080910402602001604051908101604052809291908181526020018280546104479061142a565b80156104945780601f1061046957610100808354040283529160200191610494565b820191906000526020600020905b81548152906001019060200180831161047757829003601f168201915b50505091835250506005820154602082015260069091015463ffffffff8082166040840152600160201b820481166060840152600160401b90910460ff16151560809092019190915260e08201519192501642116105255760405162461bcd60e51b81526020600482015260096024820152681b9bdd08195b99195960ba1b60448201526064015b60405180910390fd5b80602001518160a001511061056e5760405162461bcd60e51b815260206004820152600f60248201526e1c1b195919d959080f8f4819dbd85b608a1b604482015260640161051c565b600082815260026020908152604080832033808552925280832080549390555163a9059cbb60e01b81526004810191909152602481018290526001600160a01b037f0000000000000000000000000000000000000000000000000000000000000000169063a9059cbb906044016020604051808303816000875af11580156105fa573d6000803e3d6000fd5b505050506040513d601f19601f8201168201806040525081019061061e9190611464565b50604080518481526020810183905233917f21e12a7cad0da5928167e1084ea4d5fdf8d9af66657a2543a9ac76a0ca081477910160405180910390a2505050565b600081815260016020526040902080546001600160a01b031633146106b45760405162461bcd60e51b815260206004820152600b60248201526a3737ba1031b932b0ba37b960a91b604482015260640161051c565b6006810154600160201b900463ffffffff1642116107005760405162461bcd60e51b81526020600482015260096024820152681b9bdd08195b99195960ba1b604482015260640161051c565b8060010154816005015410156107495760405162461bcd60e51b815260206004820152600e60248201526d1c1b195919d959080f0819dbd85b60921b604482015260640161051c565b6006810154600160401b900460ff161561078f5760405162461bcd60e51b815260206004820152600760248201526618db185a5b595960ca1b604482015260640161051c565b60068101805460ff60401b1916600160401b1790558054600582015460405163a9059cbb60e01b81526001600160a01b03928316600482015260248101919091527f00000000000000000000000000000000000000000000000000000000000000009091169063a9059cbb906044016020604051808303816000875af115801561081d573d6000803e3d6000fd5b505050506040513d601f19601f820116820180604052508101906108419190611464565b506040518281527f7bb2b3c10797baccb6f8c4791f1edd6ca2f0d028ee0eda64b01a9a57e3a653f7906020015b60405180910390a15050565b600081815260016020818152604080842081516101208101835281546001600160a01b0316815293810154928401929092526002820154908301526003810180546060840191906108ca9061142a565b80601f01602080910402602001604051908101604052809291908181526020018280546108f69061142a565b80156109435780601f1061091857610100808354040283529160200191610943565b820191906000526020600020905b81548152906001019060200180831161092657829003601f168201915b5050505050815260200160048201805461095c9061142a565b80601f01602080910402602001604051908101604052809291908181526020018280546109889061142a565b80156109d55780601f106109aa576101008083540402835291602001916109d5565b820191906000526020600020905b8154815290600101906020018083116109b857829003601f168201915b50505091835250506005820154602082015260069091015463ffffffff8082166040840152600160201b820416606083015260ff600160401b90910416151560809091015280519091506001600160a01b03163314610a645760405162461bcd60e51b815260206004820152600b60248201526a3737ba1031b932b0ba37b960a91b604482015260640161051c565b8060c0015163ffffffff164210610aa75760405162461bcd60e51b81526020600482015260076024820152661cdd185c9d195960ca1b604482015260640161051c565b6000828152600160208190526040822080546001600160a01b03191681559081018290556002810182905590610ae060038301826110c8565b610aee6004830160006110c8565b5060006005820155600601805468ffffffffffffffffff191690556040518281527f8bf30e7ff26833413be5f69e1d373744864d600b664204b4a2f9844a8eedb9ed9060200161086e565b428563ffffffff161015610b805760405162461bcd60e51b815260206004820152600e60248201526d7374617274206174203c206e6f7760901b604482015260640161051c565b8463ffffffff168463ffffffff161015610bd05760405162461bcd60e51b8152602060048201526011602482015270195b9908185d080f081cdd185c9d08185d607a1b604482015260640161051c565b610bdd426276a7006114a3565b8463ffffffff161115610c2a5760405162461bcd60e51b815260206004820152601560248201527432b7321030ba101f1036b0bc10323ab930ba34b7b760591b604482015260640161051c565b6001600080828254610c3c91906114a3565b9091555050604080516101208101825233815260208082018981528284018581526060840188815260808501889052600060a0860181905263ffffffff8c811660c08801528b1660e08701526101008601819052805481526001808652969020855181546001600160a01b0319166001600160a01b0390911617815592519583019590955551600282015592518051929392610cde9260038501920190611105565b5060808201518051610cfa916004840191602090910190611105565b5060a0820151600582015560c08201516006909101805460e0840151610100909401511515600160401b0260ff60401b1963ffffffff958616600160201b0267ffffffffffffffff199093169590941694909417179190911691909117905560005460405133917f77d91e7422af12c968468568790f8a4f79bceef79b83a1a1368e13892bfd43eb91610d9991908a90889088908c908c908a906114bb565b60405180910390a2505050505050565b60008281526001602052604090206006810154600160201b900463ffffffff16421115610e005760405162461bcd60e51b8152602060048201526005602482015264195b99195960da1b604482015260640161051c565b81816005016000828254610e149190611510565b9091555050600083815260026020908152604080832033845290915281208054849290610e42908490611510565b909155505060405163a9059cbb60e01b8152336004820152602481018390527f00000000000000000000000000000000000000000000000000000000000000006001600160a01b03169063a9059cbb906044016020604051808303816000875af1158015610eb4573d6000803e3d6000fd5b505050506040513d601f19601f82011682018060405250810190610ed89190611464565b50604051828152339084907f2eeeab891b26a214d1b25749f88a406bdea852bd8c9bfda977e0ef8114c180ba906020015b60405180910390a3505050565b6000828152600160205260409020600681015463ffffffff16421015610f6c5760405162461bcd60e51b815260206004820152600b60248201526a1b9bdd081cdd185c9d195960aa1b604482015260640161051c565b6006810154600160201b900463ffffffff16421115610fb55760405162461bcd60e51b8152602060048201526005602482015264195b99195960da1b604482015260640161051c565b81816005016000828254610fc991906114a3565b9091555050600083815260026020908152604080832033845290915281208054849290610ff79084906114a3565b90915550506040516323b872dd60e01b8152336004820152306024820152604481018390527f00000000000000000000000000000000000000000000000000000000000000006001600160a01b0316906323b872dd906064016020604051808303816000875af115801561106f573d6000803e3d6000fd5b505050506040513d601f19601f820116820180604052508101906110939190611464565b50604051828152339084907f06bdb975df800a73232998e71ed585d536222f1dfeaa622d7f62a23ada686c8290602001610f09565b5080546110d49061142a565b6000825580601f106110e4575050565b601f0160209004906000526020600020908101906111029190611189565b50565b8280546111119061142a565b90600052602060002090601f0160209004810192826111335760008555611179565b82601f1061114c57805160ff1916838001178555611179565b82800160010185558215611179579182015b8281111561117957825182559160200191906001019061115e565b50611185929150611189565b5090565b5b80821115611185576000815560010161118a565b6000602082840312156111b057600080fd5b5035919050565b6000815180845260005b818110156111dd576020818501810151868301820152016111c1565b818111156111ef576000602083870101525b50601f01601f19169290920160200192915050565b600061012060018060a01b038c1683528a60208401528960408401528060608401526112328184018a6111b7565b9050828103608084015261124681896111b7565b60a0840197909752505063ffffffff93841660c08201529190921660e08201529015156101009091015295945050505050565b803563ffffffff8116811461128d57600080fd5b919050565b634e487b7160e01b600052604160045260246000fd5b600082601f8301126112b957600080fd5b813567ffffffffffffffff808211156112d4576112d4611292565b604051601f8301601f19908116603f011681019082821181831017156112fc576112fc611292565b8160405283815286602085880101111561131557600080fd5b836020870160208301376000602085830101528094505050505092915050565b60008060008060008060c0878903121561134e57600080fd5b8635955061135e60208801611279565b945061136c60408801611279565b9350606087013567ffffffffffffffff8082111561138957600080fd5b6113958a838b016112a8565b945060808901359150808211156113ab57600080fd5b506113b889828a016112a8565b92505060a087013590509295509295509295565b600080604083850312156113df57600080fd5b50508035926020909101359150565b6000806040838503121561140157600080fd5b8235915060208301356001600160a01b038116811461141f57600080fd5b809150509250929050565b600181811c9082168061143e57607f821691505b60208210810361145e57634e487b7160e01b600052602260045260246000fd5b50919050565b60006020828403121561147657600080fd5b8151801515811461148657600080fd5b9392505050565b634e487b7160e01b600052601160045260246000fd5b600082198211156114b6576114b661148d565b500190565b87815286602082015260e0604082015260006114da60e08301886111b7565b82810360608401526114ec81886111b7565b63ffffffff96871660808501529490951660a08301525060c0015295945050505050565b6000828210156115225761152261148d565b50039056fea26469706673582212208ec7c81a14cb1e8609c8cdba94521c72d75b78f76b30d15cd9d4be5b417fa1a764736f6c634300080d0033",
  "immutableReferences": {
    "587": [
      {
        "length": 32,
        "start": 376
      },
      {
        "length": 32,
        "start": 1457
      },
      {
        "length": 32,
        "start": 2002
      },
      {
        "length": 32,
        "start": 3683
      },
      {
        "length": 32,
        "start": 4126
      }
    ]
  },
  "source": "// SPDX-License-Identifier: MIT\npragma solidity ^0.8.13;\n\ninterface IERC677 {\n    function transfer(address, uint) external returns (bool);\n\n    function transferFrom(\n        address,\n        address,\n        uint\n    ) external returns (bool);\n}\n\ncontract CrowdFundERC677 {\n    event Launch(\n        uint id,\n        address indexed creator,\n        uint goal,\n        string title,\n        string description,\n        uint32 startAt,\n        uint32 endAt,\n        uint category\n    );\n    event Cancel(uint id);\n    event Pledge(uint indexed id, address indexed caller, uint amount);\n    event Unpledge(uint indexed id, address indexed caller, uint amount);\n    event Claim(uint id);\n    event Refund(uint id, address indexed caller, uint amount);\n\n    struct Campaign {\n        // Creator of campaign\n        address creator;\n        // Amount of tokens to raise\n        uint goal;\n        // Category goal\n        uint category;\n        // Title for goal\n        string title;\n        // Desc in goal\n        string description;\n        // Total amount pledged\n        uint pledged;\n        // Timestamp of start of campaign\n        uint32 startAt;\n        // Timestamp of end of campaign\n        uint32 endAt;\n        // True if goal was reached and creator has claimed the tokens.\n        bool claimed;\n    }\n\n    IERC677 public immutable token;\n    // Total count of campaigns created.\n    // It is also used to generate id for new campaigns.\n    uint public count;\n    // Mapping from id to Campaign\n    mapping(uint => Campaign) public campaigns;\n    // Mapping from campaign id => pledger => amount pledged\n    mapping(uint => mapping(address => uint)) public pledgedAmount;\n\n    constructor(address _token) {\n        token = IERC677(_token);\n    }\n\n    function launch(\n        uint _goal,\n        uint32 _startAt,\n        uint32 _endAt,\n        string memory _title,\n        string memory _description,\n        uint _category\n    ) external {\n        require(_category >= 0, \"invalid category\");\n        require(_startAt >= block.timestamp, \"start at < now\");\n        require(_endAt >= _startAt, \"end at < start at\");\n        require(_endAt <= block.timestamp + 90 days, \"end at > max duration\");\n\n        count += 1;\n        campaigns[count] = Campaign({\n            creator: msg.sender,\n            goal: _goal,\n            title: _title,\n            description: _description,\n            pledged: 0,\n            startAt: _startAt,\n            endAt: _endAt,\n            claimed: false,\n            category: _category\n        });\n\n        emit Launch(count, msg.sender, _goal, _title, _description, _startAt, _endAt, _category);\n    }\n\n    function cancel(uint _id) external {\n        Campaign memory campaign = campaigns[_id];\n        require(campaign.creator == msg.sender, \"not creator\");\n        require(block.timestamp < campaign.startAt, \"started\");\n\n        delete campaigns[_id];\n        emit Cancel(_id);\n    }\n\n    function pledge(uint _id, uint _amount) external {\n        Campaign storage campaign = campaigns[_id];\n        require(block.timestamp >= campaign.startAt, \"not started\");\n        require(block.timestamp <= campaign.endAt, \"ended\");\n\n        campaign.pledged += _amount;\n        pledgedAmount[_id][msg.sender] += _amount;\n        token.transferFrom(msg.sender, address(this), _amount);\n\n        emit Pledge(_id, msg.sender, _amount);\n    }\n\n    function unpledge(uint _id, uint _amount) external {\n        Campaign storage campaign = campaigns[_id];\n        require(block.timestamp <= campaign.endAt, \"ended\");\n\n        campaign.pledged -= _amount;\n        pledgedAmount[_id][msg.sender] -= _amount;\n        token.transfer(msg.sender, _amount);\n\n        emit Unpledge(_id, msg.sender, _amount);\n    }\n\n    function claim(uint _id) external {\n        Campaign storage campaign = campaigns[_id];\n        require(campaign.creator == msg.sender, \"not creator\");\n        require(block.timestamp > campaign.endAt, \"not ended\");\n        require(campaign.pledged >= campaign.goal, \"pledged < goal\");\n        require(!campaign.claimed, \"claimed\");\n\n        campaign.claimed = true;\n        token.transfer(campaign.creator, campaign.pledged);\n\n        emit Claim(_id);\n    }\n\n    function refund(uint _id) external {\n        Campaign memory campaign = campaigns[_id];\n        require(block.timestamp > campaign.endAt, \"not ended\");\n        require(campaign.pledged < campaign.goal, \"pledged >= goal\");\n\n        uint bal = pledgedAmount[_id][msg.sender];\n        pledgedAmount[_id][msg.sender] = 0;\n        token.transfer(msg.sender, bal);\n\n        emit Refund(_id, msg.sender, bal);\n    }\n}\n",
  "sourcePath": "D:\\repos\\bitcoffee\\contracts\\CrowdFundERC677.sol",
  "compiler": {
    "name": "solc",
    "version": "0.8.13+commit.abaa5c0e.Emscripten.clang"
  },
  "schemaVersion": "3.4.10",
  "updatedAt": "2022-10-16T17:57:49.828Z",
  "networkType": "ethereum",
  "devdoc": {
    "kind": "dev",
    "methods": {},
    "version": 1
  },
  "userdoc": {
    "kind": "user",
    "methods": {},
    "version": 1
  }
}