{
  "contractName": "CrowdFundERC677",
  "abi": [
    {
      "inputs": [
        {
          "internalType": "address",
          "name": "_token",
          "type": "address"
        }
      ],
      "stateMutability": "nonpayable",
      "type": "constructor"
    },
    {
      "anonymous": false,
      "inputs": [
        {
          "indexed": false,
          "internalType": "uint256",
          "name": "id",
          "type": "uint256"
        }
      ],
      "name": "Cancel",
      "type": "event"
    },
    {
      "anonymous": false,
      "inputs": [
        {
          "indexed": false,
          "internalType": "uint256",
          "name": "id",
          "type": "uint256"
        }
      ],
      "name": "Claim",
      "type": "event"
    },
    {
      "anonymous": false,
      "inputs": [
        {
          "indexed": false,
          "internalType": "uint256",
          "name": "id",
          "type": "uint256"
        },
        {
          "indexed": true,
          "internalType": "address",
          "name": "creator",
          "type": "address"
        },
        {
          "indexed": false,
          "internalType": "uint256",
          "name": "goal",
          "type": "uint256"
        },
        {
          "indexed": false,
          "internalType": "string",
          "name": "title",
          "type": "string"
        },
        {
          "indexed": false,
          "internalType": "string",
          "name": "description",
          "type": "string"
        },
        {
          "indexed": false,
          "internalType": "uint32",
          "name": "startAt",
          "type": "uint32"
        },
        {
          "indexed": false,
          "internalType": "uint32",
          "name": "endAt",
          "type": "uint32"
        },
        {
          "indexed": false,
          "internalType": "string",
          "name": "category",
          "type": "string"
        }
      ],
      "name": "Launch",
      "type": "event"
    },
    {
      "anonymous": false,
      "inputs": [
        {
          "indexed": true,
          "internalType": "uint256",
          "name": "id",
          "type": "uint256"
        },
        {
          "indexed": true,
          "internalType": "address",
          "name": "caller",
          "type": "address"
        },
        {
          "indexed": false,
          "internalType": "uint256",
          "name": "amount",
          "type": "uint256"
        }
      ],
      "name": "Pledge",
      "type": "event"
    },
    {
      "anonymous": false,
      "inputs": [
        {
          "indexed": false,
          "internalType": "uint256",
          "name": "id",
          "type": "uint256"
        },
        {
          "indexed": true,
          "internalType": "address",
          "name": "caller",
          "type": "address"
        },
        {
          "indexed": false,
          "internalType": "uint256",
          "name": "amount",
          "type": "uint256"
        }
      ],
      "name": "Refund",
      "type": "event"
    },
    {
      "anonymous": false,
      "inputs": [
        {
          "indexed": true,
          "internalType": "uint256",
          "name": "id",
          "type": "uint256"
        },
        {
          "indexed": true,
          "internalType": "address",
          "name": "caller",
          "type": "address"
        },
        {
          "indexed": false,
          "internalType": "uint256",
          "name": "amount",
          "type": "uint256"
        }
      ],
      "name": "Unpledge",
      "type": "event"
    },
    {
      "inputs": [
        {
          "internalType": "uint256",
          "name": "",
          "type": "uint256"
        }
      ],
      "name": "campaigns",
      "outputs": [
        {
          "internalType": "uint256",
          "name": "id",
          "type": "uint256"
        },
        {
          "internalType": "address",
          "name": "creator",
          "type": "address"
        },
        {
          "internalType": "uint256",
          "name": "goal",
          "type": "uint256"
        },
        {
          "internalType": "string",
          "name": "category",
          "type": "string"
        },
        {
          "internalType": "string",
          "name": "title",
          "type": "string"
        },
        {
          "internalType": "string",
          "name": "description",
          "type": "string"
        },
        {
          "internalType": "uint256",
          "name": "pledged",
          "type": "uint256"
        },
        {
          "internalType": "uint32",
          "name": "startAt",
          "type": "uint32"
        },
        {
          "internalType": "uint32",
          "name": "endAt",
          "type": "uint32"
        },
        {
          "internalType": "bool",
          "name": "claimed",
          "type": "bool"
        }
      ],
      "stateMutability": "view",
      "type": "function",
      "constant": true
    },
    {
      "inputs": [
        {
          "internalType": "address",
          "name": "",
          "type": "address"
        },
        {
          "internalType": "uint256",
          "name": "",
          "type": "uint256"
        }
      ],
      "name": "campaignsAddress",
      "outputs": [
        {
          "internalType": "uint256",
          "name": "id",
          "type": "uint256"
        },
        {
          "internalType": "address",
          "name": "creator",
          "type": "address"
        },
        {
          "internalType": "uint256",
          "name": "goal",
          "type": "uint256"
        },
        {
          "internalType": "string",
          "name": "category",
          "type": "string"
        },
        {
          "internalType": "string",
          "name": "title",
          "type": "string"
        },
        {
          "internalType": "string",
          "name": "description",
          "type": "string"
        },
        {
          "internalType": "uint256",
          "name": "pledged",
          "type": "uint256"
        },
        {
          "internalType": "uint32",
          "name": "startAt",
          "type": "uint32"
        },
        {
          "internalType": "uint32",
          "name": "endAt",
          "type": "uint32"
        },
        {
          "internalType": "bool",
          "name": "claimed",
          "type": "bool"
        }
      ],
      "stateMutability": "view",
      "type": "function",
      "constant": true
    },
    {
      "inputs": [
        {
          "internalType": "uint256",
          "name": "",
          "type": "uint256"
        },
        {
          "internalType": "uint256",
          "name": "",
          "type": "uint256"
        }
      ],
      "name": "contributedCampaign",
      "outputs": [
        {
          "internalType": "address",
          "name": "",
          "type": "address"
        }
      ],
      "stateMutability": "view",
      "type": "function",
      "constant": true
    },
    {
      "inputs": [],
      "name": "count",
      "outputs": [
        {
          "internalType": "uint256",
          "name": "",
          "type": "uint256"
        }
      ],
      "stateMutability": "view",
      "type": "function",
      "constant": true
    },
    {
      "inputs": [
        {
          "internalType": "uint256",
          "name": "",
          "type": "uint256"
        },
        {
          "internalType": "address",
          "name": "",
          "type": "address"
        }
      ],
      "name": "pledgedAmount",
      "outputs": [
        {
          "internalType": "uint256",
          "name": "",
          "type": "uint256"
        }
      ],
      "stateMutability": "view",
      "type": "function",
      "constant": true
    },
    {
      "inputs": [],
      "name": "token",
      "outputs": [
        {
          "internalType": "contract IERC677",
          "name": "",
          "type": "address"
        }
      ],
      "stateMutability": "view",
      "type": "function",
      "constant": true
    },
    {
      "inputs": [
        {
          "internalType": "uint256",
          "name": "_goal",
          "type": "uint256"
        },
        {
          "internalType": "uint32",
          "name": "_startAt",
          "type": "uint32"
        },
        {
          "internalType": "uint32",
          "name": "_endAt",
          "type": "uint32"
        },
        {
          "internalType": "string",
          "name": "_title",
          "type": "string"
        },
        {
          "internalType": "string",
          "name": "_description",
          "type": "string"
        },
        {
          "internalType": "string",
          "name": "_category",
          "type": "string"
        }
      ],
      "name": "launch",
      "outputs": [],
      "stateMutability": "nonpayable",
      "type": "function"
    },
    {
      "inputs": [
        {
          "internalType": "address",
          "name": "_add",
          "type": "address"
        }
      ],
      "name": "creatorCamps",
      "outputs": [
        {
          "internalType": "uint256",
          "name": "",
          "type": "uint256"
        }
      ],
      "stateMutability": "view",
      "type": "function",
      "constant": true
    },
    {
      "inputs": [
        {
          "internalType": "uint256",
          "name": "_id",
          "type": "uint256"
        }
      ],
      "name": "cancel",
      "outputs": [],
      "stateMutability": "nonpayable",
      "type": "function"
    },
    {
      "inputs": [
        {
          "internalType": "uint256",
          "name": "_id",
          "type": "uint256"
        },
        {
          "internalType": "uint256",
          "name": "_amount",
          "type": "uint256"
        }
      ],
      "name": "pledge",
      "outputs": [],
      "stateMutability": "nonpayable",
      "type": "function"
    },
    {
      "inputs": [
        {
          "internalType": "uint256",
          "name": "_id",
          "type": "uint256"
        },
        {
          "internalType": "uint256",
          "name": "_amount",
          "type": "uint256"
        }
      ],
      "name": "unpledge",
      "outputs": [],
      "stateMutability": "nonpayable",
      "type": "function"
    },
    {
      "inputs": [
        {
          "internalType": "uint256",
          "name": "_id",
          "type": "uint256"
        }
      ],
      "name": "claim",
      "outputs": [],
      "stateMutability": "nonpayable",
      "type": "function"
    },
    {
      "inputs": [
        {
          "internalType": "uint256",
          "name": "_id",
          "type": "uint256"
        }
      ],
      "name": "refund",
      "outputs": [],
      "stateMutability": "nonpayable",
      "type": "function"
    }
  ],
  "bytecode": "0x60a060405234801561001057600080fd5b50604051611bc7380380611bc783398101604081905261002f91610040565b6001600160a01b0316608052610070565b60006020828403121561005257600080fd5b81516001600160a01b038116811461006957600080fd5b9392505050565b608051611b206100a760003960008181610211015281816107aa015281816109d301528181610e99015261154e0152611b206000f3fe608060405234801561001057600080fd5b50600436106100cf5760003560e01c806342aa68761161008c578063aa4fb63a11610066578063aa4fb63a146101b6578063e9512675146101e1578063fc0c546a1461020c578063fde327be1461023357600080fd5b806342aa687614610167578063711853ab14610190578063937628aa146101a357600080fd5b806306661abd146100d4578063141961bc146100f05780631add516314610119578063278ecde11461012c578063379607f51461014157806340e58ee514610154575b600080fd5b6100dd60005481565b6040519081526020015b60405180910390f35b6101036100fe3660046116ce565b610246565b6040516100e79a99989796959493929190611734565b6101036101273660046117df565b610446565b61013f61013a3660046116ce565b61049f565b005b61013f61014f3660046116ce565b610858565b61013f6101623660046116ce565b610a7b565b6100dd610175366004611809565b6001600160a01b031660009081526002602052604090205490565b61013f61019e36600461182b565b610ddf565b61013f6101b1366004611904565b610f4c565b6100dd6101c43660046119b6565b600360209081526000928352604080842090915290825290205481565b6101f46101ef36600461182b565b6113da565b6040516001600160a01b0390911681526020016100e7565b6101f47f000000000000000000000000000000000000000000000000000000000000000081565b61013f61024136600461182b565b611412565b600160208190526000918252604090912080549181015460028201546003830180546001600160a01b0390931693919261027f906119e2565b80601f01602080910402602001604051908101604052809291908181526020018280546102ab906119e2565b80156102f85780601f106102cd576101008083540402835291602001916102f8565b820191906000526020600020905b8154815290600101906020018083116102db57829003601f168201915b50505050509080600401805461030d906119e2565b80601f0160208091040260200160405190810160405280929190818152602001828054610339906119e2565b80156103865780601f1061035b57610100808354040283529160200191610386565b820191906000526020600020905b81548152906001019060200180831161036957829003601f168201915b50505050509080600501805461039b906119e2565b80601f01602080910402602001604051908101604052809291908181526020018280546103c7906119e2565b80156104145780601f106103e957610100808354040283529160200191610414565b820191906000526020600020905b8154815290600101906020018083116103f757829003601f168201915b50505050600683015460079093015491929163ffffffff8082169250600160201b82041690600160401b900460ff168a565b6002602052816000526040600020818154811061046257600080fd5b600091825260209091206008909102018054600182015460028301546003840180549396506001600160a01b039092169450929161027f906119e2565b600081815260016020818152604080842081516101408101835281548152938101546001600160a01b0316928401929092526002820154908301526003810180546060840191906104ef906119e2565b80601f016020809104026020016040519081016040528092919081815260200182805461051b906119e2565b80156105685780601f1061053d57610100808354040283529160200191610568565b820191906000526020600020905b81548152906001019060200180831161054b57829003601f168201915b50505050508152602001600482018054610581906119e2565b80601f01602080910402602001604051908101604052809291908181526020018280546105ad906119e2565b80156105fa5780601f106105cf576101008083540402835291602001916105fa565b820191906000526020600020905b8154815290600101906020018083116105dd57829003601f168201915b50505050508152602001600582018054610613906119e2565b80601f016020809104026020016040519081016040528092919081815260200182805461063f906119e2565b801561068c5780601f106106615761010080835404028352916020019161068c565b820191906000526020600020905b81548152906001019060200180831161066f57829003601f168201915b50505091835250506006820154602082015260079091015463ffffffff8082166040840152600160201b820481166060840152600160401b90910460ff16151560809092019190915261010082015191925016421161071e5760405162461bcd60e51b81526020600482015260096024820152681b9bdd08195b99195960ba1b60448201526064015b60405180910390fd5b80604001518160c00151106107675760405162461bcd60e51b815260206004820152600f60248201526e1c1b195919d959080f8f4819dbd85b608a1b6044820152606401610715565b600082815260036020908152604080832033808552925280832080549390555163a9059cbb60e01b81526004810191909152602481018290526001600160a01b037f0000000000000000000000000000000000000000000000000000000000000000169063a9059cbb906044016020604051808303816000875af11580156107f3573d6000803e3d6000fd5b505050506040513d601f19601f820116820180604052508101906108179190611a1c565b50604080518481526020810183905233917f21e12a7cad0da5928167e1084ea4d5fdf8d9af66657a2543a9ac76a0ca081477910160405180910390a2505050565b6000818152600160208190526040909120908101546001600160a01b031633146108b25760405162461bcd60e51b815260206004820152600b60248201526a3737ba1031b932b0ba37b960a91b6044820152606401610715565b6007810154600160201b900463ffffffff1642116108fe5760405162461bcd60e51b81526020600482015260096024820152681b9bdd08195b99195960ba1b6044820152606401610715565b8060020154816006015410156109475760405162461bcd60e51b815260206004820152600e60248201526d1c1b195919d959080f0819dbd85b60921b6044820152606401610715565b6007810154600160401b900460ff161561098d5760405162461bcd60e51b815260206004820152600760248201526618db185a5b595960ca1b6044820152606401610715565b60078101805460ff60401b1916600160401b1790556001810154600682015460405163a9059cbb60e01b81526001600160a01b03928316600482015260248101919091527f00000000000000000000000000000000000000000000000000000000000000009091169063a9059cbb906044016020604051808303816000875af1158015610a1e573d6000803e3d6000fd5b505050506040513d601f19601f82011682018060405250810190610a429190611a1c565b506040518281527f7bb2b3c10797baccb6f8c4791f1edd6ca2f0d028ee0eda64b01a9a57e3a653f7906020015b60405180910390a15050565b600081815260016020818152604080842081516101408101835281548152938101546001600160a01b031692840192909252600282015490830152600381018054606084019190610acb906119e2565b80601f0160208091040260200160405190810160405280929190818152602001828054610af7906119e2565b8015610b445780601f10610b1957610100808354040283529160200191610b44565b820191906000526020600020905b815481529060010190602001808311610b2757829003601f168201915b50505050508152602001600482018054610b5d906119e2565b80601f0160208091040260200160405190810160405280929190818152602001828054610b89906119e2565b8015610bd65780601f10610bab57610100808354040283529160200191610bd6565b820191906000526020600020905b815481529060010190602001808311610bb957829003601f168201915b50505050508152602001600582018054610bef906119e2565b80601f0160208091040260200160405190810160405280929190818152602001828054610c1b906119e2565b8015610c685780601f10610c3d57610100808354040283529160200191610c68565b820191906000526020600020905b815481529060010190602001808311610c4b57829003601f168201915b5050509183525050600682015460208083019190915260079092015463ffffffff8082166040840152600160201b820416606083015260ff600160401b9091041615156080909101528101519091506001600160a01b03163314610cfc5760405162461bcd60e51b815260206004820152600b60248201526a3737ba1031b932b0ba37b960a91b6044820152606401610715565b8060e0015163ffffffff164210610d3f5760405162461bcd60e51b81526020600482015260076024820152661cdd185c9d195960ca1b6044820152606401610715565b6000828152600160208190526040822082815590810180546001600160a01b03191690556002810182905590610d7860038301826115f8565b610d866004830160006115f8565b610d946005830160006115f8565b5060006006820155600701805468ffffffffffffffffff191690556040518281527f8bf30e7ff26833413be5f69e1d373744864d600b664204b4a2f9844a8eedb9ed90602001610a6f565b60008281526001602052604090206007810154600160201b900463ffffffff16421115610e365760405162461bcd60e51b8152602060048201526005602482015264195b99195960da1b6044820152606401610715565b81816006016000828254610e4a9190611a54565b9091555050600083815260036020908152604080832033845290915281208054849290610e78908490611a54565b909155505060405163a9059cbb60e01b8152336004820152602481018390527f00000000000000000000000000000000000000000000000000000000000000006001600160a01b03169063a9059cbb906044016020604051808303816000875af1158015610eea573d6000803e3d6000fd5b505050506040513d601f19601f82011682018060405250810190610f0e9190611a1c565b50604051828152339084907f2eeeab891b26a214d1b25749f88a406bdea852bd8c9bfda977e0ef8114c180ba906020015b60405180910390a3505050565b428563ffffffff161015610f935760405162461bcd60e51b815260206004820152600e60248201526d7374617274206174203c206e6f7760901b6044820152606401610715565b8463ffffffff168463ffffffff161015610fe35760405162461bcd60e51b8152602060048201526011602482015270195b9908185d080f081cdd185c9d08185d607a1b6044820152606401610715565b610ff0426276a700611a6b565b8463ffffffff16111561103d5760405162461bcd60e51b815260206004820152601560248201527432b7321030ba101f1036b0bc10323ab930ba34b7b760591b6044820152606401610715565b600160008082825461104f9190611a6b565b90915550506040805161014081018252600080548083523360208085019182528486018c815260608601888152608087018b905260a087018a905260c0870186905263ffffffff8d811660e08901528c16610100880152610120870186905293855260018083529690942085518155915195820180546001600160a01b0319166001600160a01b039097169690961790955591516002830155518051929391926110ff9260038501920190611635565b506080820151805161111b916004840191602090910190611635565b5060a08201518051611137916005840191602090910190611635565b5060c0820151816006015560e08201518160070160006101000a81548163ffffffff021916908363ffffffff1602179055506101008201518160070160046101000a81548163ffffffff021916908363ffffffff1602179055506101208201518160070160086101000a81548160ff02191690831515021790555090505060026000336001600160a01b03166001600160a01b031681526020019081526020016000206040518061014001604052806000548152602001336001600160a01b03168152602001888152602001838152602001858152602001848152602001600081526020018763ffffffff1681526020018663ffffffff1681526020016000151581525090806001815401808255809150506001900390600052602060002090600802016000909190919091506000820151816000015560208201518160010160006101000a8154816001600160a01b0302191690836001600160a01b031602179055506040820151816002015560608201518160030190805190602001906112c1929190611635565b50608082015180516112dd916004840191602090910190611635565b5060a082015180516112f9916005840191602090910190611635565b5060c0820151600682015560e082015160079091018054610100840151610120909401511515600160401b0260ff60401b1963ffffffff958616600160201b0267ffffffffffffffff1990931695909416949094171791909116919091179055600080548152600460209081526040808320805460018101825590845291832090910180546001600160a01b03191633908117909155915490517f8681f5882d857bd3137be5c82ad41f01c5f6918b8f1bc2b876011f6e6ce084dd916113ca918a90889088908c908c908a90611a83565b60405180910390a2505050505050565b600460205281600052604060002081815481106113f657600080fd5b6000918252602090912001546001600160a01b03169150829050565b6000828152600160205260409020600781015463ffffffff164210156114685760405162461bcd60e51b815260206004820152600b60248201526a1b9bdd081cdd185c9d195960aa1b6044820152606401610715565b6007810154600160201b900463ffffffff164211156114b15760405162461bcd60e51b8152602060048201526005602482015264195b99195960da1b6044820152606401610715565b818160060160008282546114c59190611a6b565b90915550506000838152600360209081526040808320338452909152812080548492906114f3908490611a6b565b909155505060008381526004602081815260408084208054600181018255908552919093200180546001600160a01b0319163390811790915591516323b872dd60e01b815290810191909152306024820152604481018390527f00000000000000000000000000000000000000000000000000000000000000006001600160a01b0316906323b872dd906064016020604051808303816000875af115801561159f573d6000803e3d6000fd5b505050506040513d601f19601f820116820180604052508101906115c39190611a1c565b50604051828152339084907f06bdb975df800a73232998e71ed585d536222f1dfeaa622d7f62a23ada686c8290602001610f3f565b508054611604906119e2565b6000825580601f10611614575050565b601f01602090049060005260206000209081019061163291906116b9565b50565b828054611641906119e2565b90600052602060002090601f01602090048101928261166357600085556116a9565b82601f1061167c57805160ff19168380011785556116a9565b828001600101855582156116a9579182015b828111156116a957825182559160200191906001019061168e565b506116b59291506116b9565b5090565b5b808211156116b557600081556001016116ba565b6000602082840312156116e057600080fd5b5035919050565b6000815180845260005b8181101561170d576020818501810151868301820152016116f1565b8181111561171f576000602083870101525b50601f01601f19169290920160200192915050565b8a81526001600160a01b038a16602082015260408101899052610140606082018190526000906117668382018b6116e7565b9050828103608084015261177a818a6116e7565b905082810360a084015261178e81896116e7565b60c0840197909752505063ffffffff93841660e082015291909216610100820152901515610120909101529695505050505050565b80356001600160a01b03811681146117da57600080fd5b919050565b600080604083850312156117f257600080fd5b6117fb836117c3565b946020939093013593505050565b60006020828403121561181b57600080fd5b611824826117c3565b9392505050565b6000806040838503121561183e57600080fd5b50508035926020909101359150565b803563ffffffff811681146117da57600080fd5b634e487b7160e01b600052604160045260246000fd5b600082601f83011261188857600080fd5b813567ffffffffffffffff808211156118a3576118a3611861565b604051601f8301601f19908116603f011681019082821181831017156118cb576118cb611861565b816040528381528660208588010111156118e457600080fd5b836020870160208301376000602085830101528094505050505092915050565b60008060008060008060c0878903121561191d57600080fd5b8635955061192d6020880161184d565b945061193b6040880161184d565b9350606087013567ffffffffffffffff8082111561195857600080fd5b6119648a838b01611877565b9450608089013591508082111561197a57600080fd5b6119868a838b01611877565b935060a089013591508082111561199c57600080fd5b506119a989828a01611877565b9150509295509295509295565b600080604083850312156119c957600080fd5b823591506119d9602084016117c3565b90509250929050565b600181811c908216806119f657607f821691505b602082108103611a1657634e487b7160e01b600052602260045260246000fd5b50919050565b600060208284031215611a2e57600080fd5b8151801515811461182457600080fd5b634e487b7160e01b600052601160045260246000fd5b600082821015611a6657611a66611a3e565b500390565b60008219821115611a7e57611a7e611a3e565b500190565b87815286602082015260e060408201526000611aa260e08301886116e7565b8281036060840152611ab481886116e7565b63ffffffff8781166080860152861660a085015283810360c08501529050611adc81856116e7565b9a995050505050505050505056fea2646970667358221220958a28be79309a0f43117432e2deb5dfbd00d6633a0eea8333c226c99e27e9f164736f6c634300080d0033",
  "immutableReferences": {
    "637": [
      {
        "length": 32,
        "start": 529
      },
      {
        "length": 32,
        "start": 1962
      },
      {
        "length": 32,
        "start": 2515
      },
      {
        "length": 32,
        "start": 3737
      },
      {
        "length": 32,
        "start": 5454
      }
    ]
  },
  "source": "// SPDX-License-Identifier: MIT\r\npragma solidity ^0.8.13;\r\n\r\ninterface IERC677 {\r\n    function transfer(address, uint) external returns (bool);\r\n\r\n    function transferFrom(\r\n        address,\r\n        address,\r\n        uint\r\n    ) external returns (bool);\r\n}\r\n\r\ncontract CrowdFundERC677 {\r\n    event Launch(\r\n        uint id,\r\n        address indexed creator,\r\n        uint goal,\r\n        string title,\r\n        string description,\r\n        uint32 startAt,\r\n        uint32 endAt,\r\n        string category\r\n    );\r\n    event Cancel(uint id);\r\n    event Pledge(uint indexed id, address indexed caller, uint amount);\r\n    event Unpledge(uint indexed id, address indexed caller, uint amount);\r\n    event Claim(uint id);\r\n    event Refund(uint id, address indexed caller, uint amount);\r\n\r\n    struct Campaign {\r\n        // Campaign id\r\n        uint id;\r\n        // Creator of campaign\r\n        address creator;\r\n        // Amount of tokens to raise\r\n        uint goal;\r\n        // Category goal\r\n        string category;\r\n        // Title for goal\r\n        string title;\r\n        // Desc in goal\r\n        string description;\r\n        // Total amount pledged\r\n        uint pledged;\r\n        // Timestamp of start of campaign\r\n        uint32 startAt;\r\n        // Timestamp of end of campaign\r\n        uint32 endAt;\r\n        // True if goal was reached and creator has claimed the tokens.\r\n        bool claimed;\r\n    }\r\n\r\n    IERC677 public immutable token;\r\n    // Total count of campaigns created.\r\n    // It is also used to generate id for new campaigns.\r\n    uint public count;\r\n    // Mapping from id to Campaign\r\n    mapping(uint => Campaign) public campaigns;\r\n    // Mapping from creator addres to Campaign\r\n    mapping(address => Campaign[]) public campaignsAddress;\r\n    // Mapping from campaign id => pledger => amount pledged\r\n    mapping(uint => mapping(address => uint)) public pledgedAmount;\r\n    // Mapping for campaings contributors\r\n    mapping(uint => address[]) public contributedCampaign;\r\n\r\n    constructor(address _token) {\r\n        token = IERC677(_token);\r\n    }\r\n\r\n    function launch(\r\n        uint _goal,\r\n        uint32 _startAt,\r\n        uint32 _endAt,\r\n        string memory _title,\r\n        string memory _description,\r\n        string memory _category\r\n    ) external {\r\n        require(_startAt >= block.timestamp, \"start at < now\");\r\n        require(_endAt >= _startAt, \"end at < start at\");\r\n        require(_endAt <= block.timestamp + 90 days, \"end at > max duration\");\r\n\r\n        count += 1;\r\n        campaigns[count] = Campaign({\r\n            id: count,\r\n            creator: msg.sender,\r\n            goal: _goal,\r\n            title: _title,\r\n            description: _description,\r\n            pledged: 0,\r\n            startAt: _startAt,\r\n            endAt: _endAt,\r\n            claimed: false,\r\n            category: _category\r\n        });\r\n\r\n        campaignsAddress[msg.sender].push(Campaign({\r\n            id: count,\r\n            creator: msg.sender,\r\n            goal: _goal,\r\n            title: _title,\r\n            description: _description,\r\n            pledged: 0,\r\n            startAt: _startAt,\r\n            endAt: _endAt,\r\n            claimed: false,\r\n            category: _category\r\n        }));\r\n        \r\n        contributedCampaign[count].push(msg.sender);\r\n\r\n        emit Launch(count, msg.sender, _goal, _title, _description, _startAt, _endAt, _category);\r\n    }\r\n\r\n    function creatorCamps(address _add) public view returns (uint) {\r\n        return campaignsAddress[_add].length;\r\n    }\r\n\r\n    function cancel(uint _id) external {\r\n        Campaign memory campaign = campaigns[_id];\r\n        require(campaign.creator == msg.sender, \"not creator\");\r\n        require(block.timestamp < campaign.startAt, \"started\");\r\n\r\n        delete campaigns[_id];\r\n        emit Cancel(_id);\r\n    }\r\n\r\n    function pledge(uint _id, uint _amount) external {\r\n        Campaign storage campaign = campaigns[_id];\r\n        require(block.timestamp >= campaign.startAt, \"not started\");\r\n        require(block.timestamp <= campaign.endAt, \"ended\");\r\n\r\n        campaign.pledged += _amount;\r\n        pledgedAmount[_id][msg.sender] += _amount;\r\n        contributedCampaign[_id].push(msg.sender);\r\n        token.transferFrom(msg.sender, address(this), _amount);\r\n\r\n        emit Pledge(_id, msg.sender, _amount);\r\n    }\r\n\r\n    function unpledge(uint _id, uint _amount) external {\r\n        Campaign storage campaign = campaigns[_id];\r\n        require(block.timestamp <= campaign.endAt, \"ended\");\r\n\r\n        campaign.pledged -= _amount;\r\n        pledgedAmount[_id][msg.sender] -= _amount;\r\n        token.transfer(msg.sender, _amount);\r\n\r\n        emit Unpledge(_id, msg.sender, _amount);\r\n    }\r\n\r\n    function claim(uint _id) external {\r\n        Campaign storage campaign = campaigns[_id];\r\n        require(campaign.creator == msg.sender, \"not creator\");\r\n        require(block.timestamp > campaign.endAt, \"not ended\");\r\n        require(campaign.pledged >= campaign.goal, \"pledged < goal\");\r\n        require(!campaign.claimed, \"claimed\");\r\n\r\n        campaign.claimed = true;\r\n        token.transfer(campaign.creator, campaign.pledged);\r\n\r\n        emit Claim(_id);\r\n    }\r\n\r\n    function refund(uint _id) external {\r\n        Campaign memory campaign = campaigns[_id];\r\n        require(block.timestamp > campaign.endAt, \"not ended\");\r\n        require(campaign.pledged < campaign.goal, \"pledged >= goal\");\r\n\r\n        uint bal = pledgedAmount[_id][msg.sender];\r\n        pledgedAmount[_id][msg.sender] = 0;\r\n        token.transfer(msg.sender, bal);\r\n\r\n        emit Refund(_id, msg.sender, bal);\r\n    }\r\n}\r\n",
  "sourcePath": "D:\\repos\\bitcoffee\\contracts\\CrowdFundERC677.sol",
  "compiler": {
    "name": "solc",
    "version": "0.8.13+commit.abaa5c0e.Emscripten.clang"
  },
  "schemaVersion": "3.4.10",
  "updatedAt": "2022-10-25T17:12:48.335Z",
  "networkType": "ethereum",
  "devdoc": {
    "kind": "dev",
    "methods": {},
    "version": 1
  },
  "userdoc": {
    "kind": "user",
    "methods": {},
    "version": 1
  }
}