{
  "contractName": "CrowdFundERC677",
  "abi": [
    {
      "inputs": [
        {
          "internalType": "address",
          "name": "_token",
          "type": "address"
        }
      ],
      "stateMutability": "nonpayable",
      "type": "constructor"
    },
    {
      "anonymous": false,
      "inputs": [
        {
          "indexed": false,
          "internalType": "uint256",
          "name": "id",
          "type": "uint256"
        }
      ],
      "name": "Cancel",
      "type": "event"
    },
    {
      "anonymous": false,
      "inputs": [
        {
          "indexed": false,
          "internalType": "uint256",
          "name": "id",
          "type": "uint256"
        }
      ],
      "name": "Claim",
      "type": "event"
    },
    {
      "anonymous": false,
      "inputs": [
        {
          "indexed": false,
          "internalType": "uint256",
          "name": "id",
          "type": "uint256"
        },
        {
          "indexed": true,
          "internalType": "address",
          "name": "creator",
          "type": "address"
        },
        {
          "indexed": false,
          "internalType": "uint256",
          "name": "goal",
          "type": "uint256"
        },
        {
          "indexed": false,
          "internalType": "string",
          "name": "title",
          "type": "string"
        },
        {
          "indexed": false,
          "internalType": "string",
          "name": "description",
          "type": "string"
        },
        {
          "indexed": false,
          "internalType": "uint32",
          "name": "startAt",
          "type": "uint32"
        },
        {
          "indexed": false,
          "internalType": "uint32",
          "name": "endAt",
          "type": "uint32"
        },
        {
          "indexed": false,
          "internalType": "string",
          "name": "category",
          "type": "string"
        }
      ],
      "name": "Launch",
      "type": "event"
    },
    {
      "anonymous": false,
      "inputs": [
        {
          "indexed": true,
          "internalType": "uint256",
          "name": "id",
          "type": "uint256"
        },
        {
          "indexed": true,
          "internalType": "address",
          "name": "caller",
          "type": "address"
        },
        {
          "indexed": false,
          "internalType": "uint256",
          "name": "amount",
          "type": "uint256"
        }
      ],
      "name": "Pledge",
      "type": "event"
    },
    {
      "anonymous": false,
      "inputs": [
        {
          "indexed": false,
          "internalType": "uint256",
          "name": "id",
          "type": "uint256"
        },
        {
          "indexed": true,
          "internalType": "address",
          "name": "caller",
          "type": "address"
        },
        {
          "indexed": false,
          "internalType": "uint256",
          "name": "amount",
          "type": "uint256"
        }
      ],
      "name": "Refund",
      "type": "event"
    },
    {
      "anonymous": false,
      "inputs": [
        {
          "indexed": true,
          "internalType": "uint256",
          "name": "id",
          "type": "uint256"
        },
        {
          "indexed": true,
          "internalType": "address",
          "name": "caller",
          "type": "address"
        },
        {
          "indexed": false,
          "internalType": "uint256",
          "name": "amount",
          "type": "uint256"
        }
      ],
      "name": "Unpledge",
      "type": "event"
    },
    {
      "inputs": [
        {
          "internalType": "uint256",
          "name": "",
          "type": "uint256"
        }
      ],
      "name": "campaigns",
      "outputs": [
        {
          "internalType": "uint256",
          "name": "id",
          "type": "uint256"
        },
        {
          "internalType": "address",
          "name": "creator",
          "type": "address"
        },
        {
          "internalType": "uint256",
          "name": "goal",
          "type": "uint256"
        },
        {
          "internalType": "string",
          "name": "category",
          "type": "string"
        },
        {
          "internalType": "string",
          "name": "title",
          "type": "string"
        },
        {
          "internalType": "string",
          "name": "description",
          "type": "string"
        },
        {
          "internalType": "uint256",
          "name": "pledged",
          "type": "uint256"
        },
        {
          "internalType": "uint32",
          "name": "startAt",
          "type": "uint32"
        },
        {
          "internalType": "uint32",
          "name": "endAt",
          "type": "uint32"
        },
        {
          "internalType": "bool",
          "name": "claimed",
          "type": "bool"
        }
      ],
      "stateMutability": "view",
      "type": "function",
      "constant": true
    },
    {
      "inputs": [
        {
          "internalType": "address",
          "name": "",
          "type": "address"
        },
        {
          "internalType": "uint256",
          "name": "",
          "type": "uint256"
        }
      ],
      "name": "campaignsAddress",
      "outputs": [
        {
          "internalType": "uint256",
          "name": "id",
          "type": "uint256"
        },
        {
          "internalType": "address",
          "name": "creator",
          "type": "address"
        },
        {
          "internalType": "uint256",
          "name": "goal",
          "type": "uint256"
        },
        {
          "internalType": "string",
          "name": "category",
          "type": "string"
        },
        {
          "internalType": "string",
          "name": "title",
          "type": "string"
        },
        {
          "internalType": "string",
          "name": "description",
          "type": "string"
        },
        {
          "internalType": "uint256",
          "name": "pledged",
          "type": "uint256"
        },
        {
          "internalType": "uint32",
          "name": "startAt",
          "type": "uint32"
        },
        {
          "internalType": "uint32",
          "name": "endAt",
          "type": "uint32"
        },
        {
          "internalType": "bool",
          "name": "claimed",
          "type": "bool"
        }
      ],
      "stateMutability": "view",
      "type": "function",
      "constant": true
    },
    {
      "inputs": [
        {
          "internalType": "uint256",
          "name": "",
          "type": "uint256"
        },
        {
          "internalType": "uint256",
          "name": "",
          "type": "uint256"
        }
      ],
      "name": "contributedCampaign",
      "outputs": [
        {
          "internalType": "address",
          "name": "",
          "type": "address"
        }
      ],
      "stateMutability": "view",
      "type": "function",
      "constant": true
    },
    {
      "inputs": [],
      "name": "count",
      "outputs": [
        {
          "internalType": "uint256",
          "name": "",
          "type": "uint256"
        }
      ],
      "stateMutability": "view",
      "type": "function",
      "constant": true
    },
    {
      "inputs": [
        {
          "internalType": "uint256",
          "name": "",
          "type": "uint256"
        },
        {
          "internalType": "address",
          "name": "",
          "type": "address"
        }
      ],
      "name": "pledgedAmount",
      "outputs": [
        {
          "internalType": "uint256",
          "name": "",
          "type": "uint256"
        }
      ],
      "stateMutability": "view",
      "type": "function",
      "constant": true
    },
    {
      "inputs": [],
      "name": "token",
      "outputs": [
        {
          "internalType": "contract IERC677",
          "name": "",
          "type": "address"
        }
      ],
      "stateMutability": "view",
      "type": "function",
      "constant": true
    },
    {
      "inputs": [
        {
          "internalType": "uint256",
          "name": "_goal",
          "type": "uint256"
        },
        {
          "internalType": "uint32",
          "name": "_startAt",
          "type": "uint32"
        },
        {
          "internalType": "uint32",
          "name": "_endAt",
          "type": "uint32"
        },
        {
          "internalType": "string",
          "name": "_title",
          "type": "string"
        },
        {
          "internalType": "string",
          "name": "_description",
          "type": "string"
        },
        {
          "internalType": "string",
          "name": "_category",
          "type": "string"
        }
      ],
      "name": "launch",
      "outputs": [],
      "stateMutability": "nonpayable",
      "type": "function"
    },
    {
      "inputs": [
        {
          "internalType": "address",
          "name": "_add",
          "type": "address"
        }
      ],
      "name": "creatorCamps",
      "outputs": [
        {
          "internalType": "uint256",
          "name": "",
          "type": "uint256"
        }
      ],
      "stateMutability": "view",
      "type": "function",
      "constant": true
    },
    {
      "inputs": [
        {
          "internalType": "uint256",
          "name": "_camp",
          "type": "uint256"
        }
      ],
      "name": "totalContributors",
      "outputs": [
        {
          "internalType": "uint256",
          "name": "",
          "type": "uint256"
        }
      ],
      "stateMutability": "view",
      "type": "function",
      "constant": true
    },
    {
      "inputs": [
        {
          "internalType": "uint256",
          "name": "_id",
          "type": "uint256"
        }
      ],
      "name": "cancel",
      "outputs": [],
      "stateMutability": "nonpayable",
      "type": "function"
    },
    {
      "inputs": [
        {
          "internalType": "uint256",
          "name": "_id",
          "type": "uint256"
        },
        {
          "internalType": "uint256",
          "name": "_amount",
          "type": "uint256"
        }
      ],
      "name": "pledge",
      "outputs": [],
      "stateMutability": "nonpayable",
      "type": "function"
    },
    {
      "inputs": [
        {
          "internalType": "uint256",
          "name": "_id",
          "type": "uint256"
        },
        {
          "internalType": "uint256",
          "name": "_amount",
          "type": "uint256"
        }
      ],
      "name": "unpledge",
      "outputs": [],
      "stateMutability": "nonpayable",
      "type": "function"
    },
    {
      "inputs": [
        {
          "internalType": "uint256",
          "name": "_id",
          "type": "uint256"
        }
      ],
      "name": "claim",
      "outputs": [],
      "stateMutability": "nonpayable",
      "type": "function"
    },
    {
      "inputs": [
        {
          "internalType": "uint256",
          "name": "_id",
          "type": "uint256"
        }
      ],
      "name": "refund",
      "outputs": [],
      "stateMutability": "nonpayable",
      "type": "function"
    }
  ],
  "bytecode": "0x60a060405234801561001057600080fd5b50604051611c02380380611c0283398101604081905261002f91610040565b6001600160a01b0316608052610070565b60006020828403121561005257600080fd5b81516001600160a01b038116811461006957600080fd5b9392505050565b608051611b5b6100a76000396000818161024c015281816107e501528181610a0e01528181610ed401526115890152611b5b6000f3fe608060405234801561001057600080fd5b50600436106100ea5760003560e01c8063711853ab1161008c578063aa4fb63a11610066578063aa4fb63a146101f1578063e95126751461021c578063fc0c546a14610247578063fde327be1461026e57600080fd5b8063711853ab146101ab57806388e951dd146101be578063937628aa146101de57600080fd5b8063278ecde1116100c8578063278ecde114610147578063379607f51461015c57806340e58ee51461016f57806342aa68761461018257600080fd5b806306661abd146100ef578063141961bc1461010b5780631add516314610134575b600080fd5b6100f860005481565b6040519081526020015b60405180910390f35b61011e610119366004611709565b610281565b6040516101029a9998979695949392919061176f565b61011e61014236600461181a565b610481565b61015a610155366004611709565b6104da565b005b61015a61016a366004611709565b610893565b61015a61017d366004611709565b610ab6565b6100f8610190366004611844565b6001600160a01b031660009081526002602052604090205490565b61015a6101b9366004611866565b610e1a565b6100f86101cc366004611709565b60009081526004602052604090205490565b61015a6101ec36600461193f565b610f87565b6100f86101ff3660046119f1565b600360209081526000928352604080842090915290825290205481565b61022f61022a366004611866565b611415565b6040516001600160a01b039091168152602001610102565b61022f7f000000000000000000000000000000000000000000000000000000000000000081565b61015a61027c366004611866565b61144d565b600160208190526000918252604090912080549181015460028201546003830180546001600160a01b039093169391926102ba90611a1d565b80601f01602080910402602001604051908101604052809291908181526020018280546102e690611a1d565b80156103335780601f1061030857610100808354040283529160200191610333565b820191906000526020600020905b81548152906001019060200180831161031657829003601f168201915b50505050509080600401805461034890611a1d565b80601f016020809104026020016040519081016040528092919081815260200182805461037490611a1d565b80156103c15780601f10610396576101008083540402835291602001916103c1565b820191906000526020600020905b8154815290600101906020018083116103a457829003601f168201915b5050505050908060050180546103d690611a1d565b80601f016020809104026020016040519081016040528092919081815260200182805461040290611a1d565b801561044f5780601f106104245761010080835404028352916020019161044f565b820191906000526020600020905b81548152906001019060200180831161043257829003601f168201915b50505050600683015460079093015491929163ffffffff8082169250600160201b82041690600160401b900460ff168a565b6002602052816000526040600020818154811061049d57600080fd5b600091825260209091206008909102018054600182015460028301546003840180549396506001600160a01b03909216945092916102ba90611a1d565b600081815260016020818152604080842081516101408101835281548152938101546001600160a01b03169284019290925260028201549083015260038101805460608401919061052a90611a1d565b80601f016020809104026020016040519081016040528092919081815260200182805461055690611a1d565b80156105a35780601f10610578576101008083540402835291602001916105a3565b820191906000526020600020905b81548152906001019060200180831161058657829003601f168201915b505050505081526020016004820180546105bc90611a1d565b80601f01602080910402602001604051908101604052809291908181526020018280546105e890611a1d565b80156106355780601f1061060a57610100808354040283529160200191610635565b820191906000526020600020905b81548152906001019060200180831161061857829003601f168201915b5050505050815260200160058201805461064e90611a1d565b80601f016020809104026020016040519081016040528092919081815260200182805461067a90611a1d565b80156106c75780601f1061069c576101008083540402835291602001916106c7565b820191906000526020600020905b8154815290600101906020018083116106aa57829003601f168201915b50505091835250506006820154602082015260079091015463ffffffff8082166040840152600160201b820481166060840152600160401b90910460ff1615156080909201919091526101008201519192501642116107595760405162461bcd60e51b81526020600482015260096024820152681b9bdd08195b99195960ba1b60448201526064015b60405180910390fd5b80604001518160c00151106107a25760405162461bcd60e51b815260206004820152600f60248201526e1c1b195919d959080f8f4819dbd85b608a1b6044820152606401610750565b600082815260036020908152604080832033808552925280832080549390555163a9059cbb60e01b81526004810191909152602481018290526001600160a01b037f0000000000000000000000000000000000000000000000000000000000000000169063a9059cbb906044016020604051808303816000875af115801561082e573d6000803e3d6000fd5b505050506040513d601f19601f820116820180604052508101906108529190611a57565b50604080518481526020810183905233917f21e12a7cad0da5928167e1084ea4d5fdf8d9af66657a2543a9ac76a0ca081477910160405180910390a2505050565b6000818152600160208190526040909120908101546001600160a01b031633146108ed5760405162461bcd60e51b815260206004820152600b60248201526a3737ba1031b932b0ba37b960a91b6044820152606401610750565b6007810154600160201b900463ffffffff1642116109395760405162461bcd60e51b81526020600482015260096024820152681b9bdd08195b99195960ba1b6044820152606401610750565b8060020154816006015410156109825760405162461bcd60e51b815260206004820152600e60248201526d1c1b195919d959080f0819dbd85b60921b6044820152606401610750565b6007810154600160401b900460ff16156109c85760405162461bcd60e51b815260206004820152600760248201526618db185a5b595960ca1b6044820152606401610750565b60078101805460ff60401b1916600160401b1790556001810154600682015460405163a9059cbb60e01b81526001600160a01b03928316600482015260248101919091527f00000000000000000000000000000000000000000000000000000000000000009091169063a9059cbb906044016020604051808303816000875af1158015610a59573d6000803e3d6000fd5b505050506040513d601f19601f82011682018060405250810190610a7d9190611a57565b506040518281527f7bb2b3c10797baccb6f8c4791f1edd6ca2f0d028ee0eda64b01a9a57e3a653f7906020015b60405180910390a15050565b600081815260016020818152604080842081516101408101835281548152938101546001600160a01b031692840192909252600282015490830152600381018054606084019190610b0690611a1d565b80601f0160208091040260200160405190810160405280929190818152602001828054610b3290611a1d565b8015610b7f5780601f10610b5457610100808354040283529160200191610b7f565b820191906000526020600020905b815481529060010190602001808311610b6257829003601f168201915b50505050508152602001600482018054610b9890611a1d565b80601f0160208091040260200160405190810160405280929190818152602001828054610bc490611a1d565b8015610c115780601f10610be657610100808354040283529160200191610c11565b820191906000526020600020905b815481529060010190602001808311610bf457829003601f168201915b50505050508152602001600582018054610c2a90611a1d565b80601f0160208091040260200160405190810160405280929190818152602001828054610c5690611a1d565b8015610ca35780601f10610c7857610100808354040283529160200191610ca3565b820191906000526020600020905b815481529060010190602001808311610c8657829003601f168201915b5050509183525050600682015460208083019190915260079092015463ffffffff8082166040840152600160201b820416606083015260ff600160401b9091041615156080909101528101519091506001600160a01b03163314610d375760405162461bcd60e51b815260206004820152600b60248201526a3737ba1031b932b0ba37b960a91b6044820152606401610750565b8060e0015163ffffffff164210610d7a5760405162461bcd60e51b81526020600482015260076024820152661cdd185c9d195960ca1b6044820152606401610750565b6000828152600160208190526040822082815590810180546001600160a01b03191690556002810182905590610db36003830182611633565b610dc1600483016000611633565b610dcf600583016000611633565b5060006006820155600701805468ffffffffffffffffff191690556040518281527f8bf30e7ff26833413be5f69e1d373744864d600b664204b4a2f9844a8eedb9ed90602001610aaa565b60008281526001602052604090206007810154600160201b900463ffffffff16421115610e715760405162461bcd60e51b8152602060048201526005602482015264195b99195960da1b6044820152606401610750565b81816006016000828254610e859190611a8f565b9091555050600083815260036020908152604080832033845290915281208054849290610eb3908490611a8f565b909155505060405163a9059cbb60e01b8152336004820152602481018390527f00000000000000000000000000000000000000000000000000000000000000006001600160a01b03169063a9059cbb906044016020604051808303816000875af1158015610f25573d6000803e3d6000fd5b505050506040513d601f19601f82011682018060405250810190610f499190611a57565b50604051828152339084907f2eeeab891b26a214d1b25749f88a406bdea852bd8c9bfda977e0ef8114c180ba906020015b60405180910390a3505050565b428563ffffffff161015610fce5760405162461bcd60e51b815260206004820152600e60248201526d7374617274206174203c206e6f7760901b6044820152606401610750565b8463ffffffff168463ffffffff16101561101e5760405162461bcd60e51b8152602060048201526011602482015270195b9908185d080f081cdd185c9d08185d607a1b6044820152606401610750565b61102b426276a700611aa6565b8463ffffffff1611156110785760405162461bcd60e51b815260206004820152601560248201527432b7321030ba101f1036b0bc10323ab930ba34b7b760591b6044820152606401610750565b600160008082825461108a9190611aa6565b90915550506040805161014081018252600080548083523360208085019182528486018c815260608601888152608087018b905260a087018a905260c0870186905263ffffffff8d811660e08901528c16610100880152610120870186905293855260018083529690942085518155915195820180546001600160a01b0319166001600160a01b0390971696909617909555915160028301555180519293919261113a9260038501920190611670565b5060808201518051611156916004840191602090910190611670565b5060a08201518051611172916005840191602090910190611670565b5060c0820151816006015560e08201518160070160006101000a81548163ffffffff021916908363ffffffff1602179055506101008201518160070160046101000a81548163ffffffff021916908363ffffffff1602179055506101208201518160070160086101000a81548160ff02191690831515021790555090505060026000336001600160a01b03166001600160a01b031681526020019081526020016000206040518061014001604052806000548152602001336001600160a01b03168152602001888152602001838152602001858152602001848152602001600081526020018763ffffffff1681526020018663ffffffff1681526020016000151581525090806001815401808255809150506001900390600052602060002090600802016000909190919091506000820151816000015560208201518160010160006101000a8154816001600160a01b0302191690836001600160a01b031602179055506040820151816002015560608201518160030190805190602001906112fc929190611670565b5060808201518051611318916004840191602090910190611670565b5060a08201518051611334916005840191602090910190611670565b5060c0820151600682015560e082015160079091018054610100840151610120909401511515600160401b0260ff60401b1963ffffffff958616600160201b0267ffffffffffffffff1990931695909416949094171791909116919091179055600080548152600460209081526040808320805460018101825590845291832090910180546001600160a01b03191633908117909155915490517f8681f5882d857bd3137be5c82ad41f01c5f6918b8f1bc2b876011f6e6ce084dd91611405918a90889088908c908c908a90611abe565b60405180910390a2505050505050565b6004602052816000526040600020818154811061143157600080fd5b6000918252602090912001546001600160a01b03169150829050565b6000828152600160205260409020600781015463ffffffff164210156114a35760405162461bcd60e51b815260206004820152600b60248201526a1b9bdd081cdd185c9d195960aa1b6044820152606401610750565b6007810154600160201b900463ffffffff164211156114ec5760405162461bcd60e51b8152602060048201526005602482015264195b99195960da1b6044820152606401610750565b818160060160008282546115009190611aa6565b909155505060008381526003602090815260408083203384529091528120805484929061152e908490611aa6565b909155505060008381526004602081815260408084208054600181018255908552919093200180546001600160a01b0319163390811790915591516323b872dd60e01b815290810191909152306024820152604481018390527f00000000000000000000000000000000000000000000000000000000000000006001600160a01b0316906323b872dd906064016020604051808303816000875af11580156115da573d6000803e3d6000fd5b505050506040513d601f19601f820116820180604052508101906115fe9190611a57565b50604051828152339084907f06bdb975df800a73232998e71ed585d536222f1dfeaa622d7f62a23ada686c8290602001610f7a565b50805461163f90611a1d565b6000825580601f1061164f575050565b601f01602090049060005260206000209081019061166d91906116f4565b50565b82805461167c90611a1d565b90600052602060002090601f01602090048101928261169e57600085556116e4565b82601f106116b757805160ff19168380011785556116e4565b828001600101855582156116e4579182015b828111156116e45782518255916020019190600101906116c9565b506116f09291506116f4565b5090565b5b808211156116f057600081556001016116f5565b60006020828403121561171b57600080fd5b5035919050565b6000815180845260005b818110156117485760208185018101518683018201520161172c565b8181111561175a576000602083870101525b50601f01601f19169290920160200192915050565b8a81526001600160a01b038a16602082015260408101899052610140606082018190526000906117a18382018b611722565b905082810360808401526117b5818a611722565b905082810360a08401526117c98189611722565b60c0840197909752505063ffffffff93841660e082015291909216610100820152901515610120909101529695505050505050565b80356001600160a01b038116811461181557600080fd5b919050565b6000806040838503121561182d57600080fd5b611836836117fe565b946020939093013593505050565b60006020828403121561185657600080fd5b61185f826117fe565b9392505050565b6000806040838503121561187957600080fd5b50508035926020909101359150565b803563ffffffff8116811461181557600080fd5b634e487b7160e01b600052604160045260246000fd5b600082601f8301126118c357600080fd5b813567ffffffffffffffff808211156118de576118de61189c565b604051601f8301601f19908116603f011681019082821181831017156119065761190661189c565b8160405283815286602085880101111561191f57600080fd5b836020870160208301376000602085830101528094505050505092915050565b60008060008060008060c0878903121561195857600080fd5b8635955061196860208801611888565b945061197660408801611888565b9350606087013567ffffffffffffffff8082111561199357600080fd5b61199f8a838b016118b2565b945060808901359150808211156119b557600080fd5b6119c18a838b016118b2565b935060a08901359150808211156119d757600080fd5b506119e489828a016118b2565b9150509295509295509295565b60008060408385031215611a0457600080fd5b82359150611a14602084016117fe565b90509250929050565b600181811c90821680611a3157607f821691505b602082108103611a5157634e487b7160e01b600052602260045260246000fd5b50919050565b600060208284031215611a6957600080fd5b8151801515811461185f57600080fd5b634e487b7160e01b600052601160045260246000fd5b600082821015611aa157611aa1611a79565b500390565b60008219821115611ab957611ab9611a79565b500190565b87815286602082015260e060408201526000611add60e0830188611722565b8281036060840152611aef8188611722565b63ffffffff8781166080860152861660a085015283810360c08501529050611b178185611722565b9a995050505050505050505056fea26469706673582212201b8e9054aa4b8e94dfc79edc7803dd23fd051eb31671c988ac6b441f2c01e5c664736f6c634300080d0033",
  "immutableReferences": {
    "650": [
      {
        "length": 32,
        "start": 588
      },
      {
        "length": 32,
        "start": 2021
      },
      {
        "length": 32,
        "start": 2574
      },
      {
        "length": 32,
        "start": 3796
      },
      {
        "length": 32,
        "start": 5513
      }
    ]
  },
  "source": "// SPDX-License-Identifier: MIT\r\npragma solidity ^0.8.13;\r\n\r\ninterface IERC677 {\r\n    function transfer(address, uint) external returns (bool);\r\n\r\n    function transferFrom(\r\n        address,\r\n        address,\r\n        uint\r\n    ) external returns (bool);\r\n}\r\n\r\ncontract CrowdFundERC677 {\r\n    event Launch(\r\n        uint id,\r\n        address indexed creator,\r\n        uint goal,\r\n        string title,\r\n        string description,\r\n        uint32 startAt,\r\n        uint32 endAt,\r\n        string category\r\n    );\r\n    event Cancel(uint id);\r\n    event Pledge(uint indexed id, address indexed caller, uint amount);\r\n    event Unpledge(uint indexed id, address indexed caller, uint amount);\r\n    event Claim(uint id);\r\n    event Refund(uint id, address indexed caller, uint amount);\r\n\r\n    struct Campaign {\r\n        // Campaign id\r\n        uint id;\r\n        // Creator of campaign\r\n        address creator;\r\n        // Amount of tokens to raise\r\n        uint goal;\r\n        // Category goal\r\n        string category;\r\n        // Title for goal\r\n        string title;\r\n        // Desc in goal\r\n        string description;\r\n        // Total amount pledged\r\n        uint pledged;\r\n        // Timestamp of start of campaign\r\n        uint32 startAt;\r\n        // Timestamp of end of campaign\r\n        uint32 endAt;\r\n        // True if goal was reached and creator has claimed the tokens.\r\n        bool claimed;\r\n    }\r\n\r\n    IERC677 public immutable token;\r\n    // Total count of campaigns created.\r\n    // It is also used to generate id for new campaigns.\r\n    uint public count;\r\n    // Mapping from id to Campaign\r\n    mapping(uint => Campaign) public campaigns;\r\n    // Mapping from creator addres to Campaign\r\n    mapping(address => Campaign[]) public campaignsAddress;\r\n    // Mapping from campaign id => pledger => amount pledged\r\n    mapping(uint => mapping(address => uint)) public pledgedAmount;\r\n    // Mapping for campaings contributors\r\n    mapping(uint => address[]) public contributedCampaign;\r\n\r\n    constructor(address _token) {\r\n        token = IERC677(_token);\r\n    }\r\n\r\n    function launch(\r\n        uint _goal,\r\n        uint32 _startAt,\r\n        uint32 _endAt,\r\n        string memory _title,\r\n        string memory _description,\r\n        string memory _category\r\n    ) external {\r\n        require(_startAt >= block.timestamp, \"start at < now\");\r\n        require(_endAt >= _startAt, \"end at < start at\");\r\n        require(_endAt <= block.timestamp + 90 days, \"end at > max duration\");\r\n\r\n        count += 1;\r\n        campaigns[count] = Campaign({\r\n            id: count,\r\n            creator: msg.sender,\r\n            goal: _goal,\r\n            title: _title,\r\n            description: _description,\r\n            pledged: 0,\r\n            startAt: _startAt,\r\n            endAt: _endAt,\r\n            claimed: false,\r\n            category: _category\r\n        });\r\n\r\n        campaignsAddress[msg.sender].push(Campaign({\r\n            id: count,\r\n            creator: msg.sender,\r\n            goal: _goal,\r\n            title: _title,\r\n            description: _description,\r\n            pledged: 0,\r\n            startAt: _startAt,\r\n            endAt: _endAt,\r\n            claimed: false,\r\n            category: _category\r\n        }));\r\n        \r\n        contributedCampaign[count].push(msg.sender);\r\n\r\n        emit Launch(count, msg.sender, _goal, _title, _description, _startAt, _endAt, _category);\r\n    }\r\n\r\n    function creatorCamps(address _add) public view returns (uint) {\r\n        return campaignsAddress[_add].length;\r\n    }\r\n\r\n    function totalContributors(uint _camp) public view returns (uint) {\r\n        return contributedCampaign[_camp].length;\r\n    }\r\n\r\n    function cancel(uint _id) external {\r\n        Campaign memory campaign = campaigns[_id];\r\n        require(campaign.creator == msg.sender, \"not creator\");\r\n        require(block.timestamp < campaign.startAt, \"started\");\r\n\r\n        delete campaigns[_id];\r\n        emit Cancel(_id);\r\n    }\r\n\r\n    function pledge(uint _id, uint _amount) external {\r\n        Campaign storage campaign = campaigns[_id];\r\n        require(block.timestamp >= campaign.startAt, \"not started\");\r\n        require(block.timestamp <= campaign.endAt, \"ended\");\r\n\r\n        campaign.pledged += _amount;\r\n        pledgedAmount[_id][msg.sender] += _amount;\r\n        contributedCampaign[_id].push(msg.sender);\r\n        token.transferFrom(msg.sender, address(this), _amount);\r\n\r\n        emit Pledge(_id, msg.sender, _amount);\r\n    }\r\n\r\n    function unpledge(uint _id, uint _amount) external {\r\n        Campaign storage campaign = campaigns[_id];\r\n        require(block.timestamp <= campaign.endAt, \"ended\");\r\n\r\n        campaign.pledged -= _amount;\r\n        pledgedAmount[_id][msg.sender] -= _amount;\r\n        token.transfer(msg.sender, _amount);\r\n\r\n        emit Unpledge(_id, msg.sender, _amount);\r\n    }\r\n\r\n    function claim(uint _id) external {\r\n        Campaign storage campaign = campaigns[_id];\r\n        require(campaign.creator == msg.sender, \"not creator\");\r\n        require(block.timestamp > campaign.endAt, \"not ended\");\r\n        require(campaign.pledged >= campaign.goal, \"pledged < goal\");\r\n        require(!campaign.claimed, \"claimed\");\r\n\r\n        campaign.claimed = true;\r\n        token.transfer(campaign.creator, campaign.pledged);\r\n\r\n        emit Claim(_id);\r\n    }\r\n\r\n    function refund(uint _id) external {\r\n        Campaign memory campaign = campaigns[_id];\r\n        require(block.timestamp > campaign.endAt, \"not ended\");\r\n        require(campaign.pledged < campaign.goal, \"pledged >= goal\");\r\n\r\n        uint bal = pledgedAmount[_id][msg.sender];\r\n        pledgedAmount[_id][msg.sender] = 0;\r\n        token.transfer(msg.sender, bal);\r\n\r\n        emit Refund(_id, msg.sender, bal);\r\n    }\r\n}\r\n",
  "sourcePath": "D:\\repos\\bitcoffee\\contracts\\CrowdFundERC677.sol",
  "compiler": {
    "name": "solc",
    "version": "0.8.13+commit.abaa5c0e.Emscripten.clang"
  },
  "schemaVersion": "3.4.10",
  "updatedAt": "2022-10-31T20:50:20.705Z",
  "networkType": "ethereum",
  "devdoc": {
    "kind": "dev",
    "methods": {},
    "version": 1
  },
  "userdoc": {
    "kind": "user",
    "methods": {},
    "version": 1
  }
}