{
  "contractName": "CrowdFundERC677",
  "abi": [
    {
      "inputs": [
        {
          "internalType": "address",
          "name": "_token",
          "type": "address"
        }
      ],
      "stateMutability": "nonpayable",
      "type": "constructor"
    },
    {
      "anonymous": false,
      "inputs": [
        {
          "indexed": false,
          "internalType": "uint256",
          "name": "id",
          "type": "uint256"
        }
      ],
      "name": "Cancel",
      "type": "event"
    },
    {
      "anonymous": false,
      "inputs": [
        {
          "indexed": false,
          "internalType": "uint256",
          "name": "id",
          "type": "uint256"
        }
      ],
      "name": "Claim",
      "type": "event"
    },
    {
      "anonymous": false,
      "inputs": [
        {
          "indexed": false,
          "internalType": "uint256",
          "name": "id",
          "type": "uint256"
        },
        {
          "indexed": true,
          "internalType": "address",
          "name": "creator",
          "type": "address"
        },
        {
          "indexed": false,
          "internalType": "uint256",
          "name": "goal",
          "type": "uint256"
        },
        {
          "indexed": false,
          "internalType": "string",
          "name": "title",
          "type": "string"
        },
        {
          "indexed": false,
          "internalType": "string",
          "name": "description",
          "type": "string"
        },
        {
          "indexed": false,
          "internalType": "uint32",
          "name": "startAt",
          "type": "uint32"
        },
        {
          "indexed": false,
          "internalType": "uint32",
          "name": "endAt",
          "type": "uint32"
        },
        {
          "indexed": false,
          "internalType": "string",
          "name": "category",
          "type": "string"
        }
      ],
      "name": "Launch",
      "type": "event"
    },
    {
      "anonymous": false,
      "inputs": [
        {
          "indexed": true,
          "internalType": "uint256",
          "name": "id",
          "type": "uint256"
        },
        {
          "indexed": true,
          "internalType": "address",
          "name": "caller",
          "type": "address"
        },
        {
          "indexed": false,
          "internalType": "uint256",
          "name": "amount",
          "type": "uint256"
        }
      ],
      "name": "Pledge",
      "type": "event"
    },
    {
      "anonymous": false,
      "inputs": [
        {
          "indexed": false,
          "internalType": "uint256",
          "name": "id",
          "type": "uint256"
        },
        {
          "indexed": true,
          "internalType": "address",
          "name": "caller",
          "type": "address"
        },
        {
          "indexed": false,
          "internalType": "uint256",
          "name": "amount",
          "type": "uint256"
        }
      ],
      "name": "Refund",
      "type": "event"
    },
    {
      "anonymous": false,
      "inputs": [
        {
          "indexed": true,
          "internalType": "uint256",
          "name": "id",
          "type": "uint256"
        },
        {
          "indexed": true,
          "internalType": "address",
          "name": "caller",
          "type": "address"
        },
        {
          "indexed": false,
          "internalType": "uint256",
          "name": "amount",
          "type": "uint256"
        }
      ],
      "name": "Unpledge",
      "type": "event"
    },
    {
      "inputs": [
        {
          "internalType": "uint256",
          "name": "",
          "type": "uint256"
        }
      ],
      "name": "campaigns",
      "outputs": [
        {
          "internalType": "uint256",
          "name": "id",
          "type": "uint256"
        },
        {
          "internalType": "address",
          "name": "creator",
          "type": "address"
        },
        {
          "internalType": "uint256",
          "name": "goal",
          "type": "uint256"
        },
        {
          "internalType": "string",
          "name": "category",
          "type": "string"
        },
        {
          "internalType": "string",
          "name": "title",
          "type": "string"
        },
        {
          "internalType": "string",
          "name": "description",
          "type": "string"
        },
        {
          "internalType": "uint256",
          "name": "pledged",
          "type": "uint256"
        },
        {
          "internalType": "uint32",
          "name": "startAt",
          "type": "uint32"
        },
        {
          "internalType": "uint32",
          "name": "endAt",
          "type": "uint32"
        },
        {
          "internalType": "bool",
          "name": "claimed",
          "type": "bool"
        }
      ],
      "stateMutability": "view",
      "type": "function",
      "constant": true
    },
    {
      "inputs": [
        {
          "internalType": "address",
          "name": "",
          "type": "address"
        },
        {
          "internalType": "uint256",
          "name": "",
          "type": "uint256"
        }
      ],
      "name": "campaignsAddress",
      "outputs": [
        {
          "internalType": "uint256",
          "name": "id",
          "type": "uint256"
        },
        {
          "internalType": "address",
          "name": "creator",
          "type": "address"
        },
        {
          "internalType": "uint256",
          "name": "goal",
          "type": "uint256"
        },
        {
          "internalType": "string",
          "name": "category",
          "type": "string"
        },
        {
          "internalType": "string",
          "name": "title",
          "type": "string"
        },
        {
          "internalType": "string",
          "name": "description",
          "type": "string"
        },
        {
          "internalType": "uint256",
          "name": "pledged",
          "type": "uint256"
        },
        {
          "internalType": "uint32",
          "name": "startAt",
          "type": "uint32"
        },
        {
          "internalType": "uint32",
          "name": "endAt",
          "type": "uint32"
        },
        {
          "internalType": "bool",
          "name": "claimed",
          "type": "bool"
        }
      ],
      "stateMutability": "view",
      "type": "function",
      "constant": true
    },
    {
      "inputs": [],
      "name": "count",
      "outputs": [
        {
          "internalType": "uint256",
          "name": "",
          "type": "uint256"
        }
      ],
      "stateMutability": "view",
      "type": "function",
      "constant": true
    },
    {
      "inputs": [
        {
          "internalType": "uint256",
          "name": "",
          "type": "uint256"
        },
        {
          "internalType": "address",
          "name": "",
          "type": "address"
        }
      ],
      "name": "pledgedAmount",
      "outputs": [
        {
          "internalType": "uint256",
          "name": "",
          "type": "uint256"
        }
      ],
      "stateMutability": "view",
      "type": "function",
      "constant": true
    },
    {
      "inputs": [],
      "name": "token",
      "outputs": [
        {
          "internalType": "contract IERC677",
          "name": "",
          "type": "address"
        }
      ],
      "stateMutability": "view",
      "type": "function",
      "constant": true
    },
    {
      "inputs": [
        {
          "internalType": "uint256",
          "name": "_goal",
          "type": "uint256"
        },
        {
          "internalType": "uint32",
          "name": "_startAt",
          "type": "uint32"
        },
        {
          "internalType": "uint32",
          "name": "_endAt",
          "type": "uint32"
        },
        {
          "internalType": "string",
          "name": "_title",
          "type": "string"
        },
        {
          "internalType": "string",
          "name": "_description",
          "type": "string"
        },
        {
          "internalType": "string",
          "name": "_category",
          "type": "string"
        }
      ],
      "name": "launch",
      "outputs": [],
      "stateMutability": "nonpayable",
      "type": "function"
    },
    {
      "inputs": [
        {
          "internalType": "address",
          "name": "_add",
          "type": "address"
        }
      ],
      "name": "creatorCamps",
      "outputs": [
        {
          "internalType": "uint256",
          "name": "",
          "type": "uint256"
        }
      ],
      "stateMutability": "view",
      "type": "function",
      "constant": true
    },
    {
      "inputs": [
        {
          "internalType": "uint256",
          "name": "_id",
          "type": "uint256"
        }
      ],
      "name": "cancel",
      "outputs": [],
      "stateMutability": "nonpayable",
      "type": "function"
    },
    {
      "inputs": [
        {
          "internalType": "uint256",
          "name": "_id",
          "type": "uint256"
        },
        {
          "internalType": "uint256",
          "name": "_amount",
          "type": "uint256"
        }
      ],
      "name": "pledge",
      "outputs": [],
      "stateMutability": "nonpayable",
      "type": "function"
    },
    {
      "inputs": [
        {
          "internalType": "uint256",
          "name": "_id",
          "type": "uint256"
        },
        {
          "internalType": "uint256",
          "name": "_amount",
          "type": "uint256"
        }
      ],
      "name": "unpledge",
      "outputs": [],
      "stateMutability": "nonpayable",
      "type": "function"
    },
    {
      "inputs": [
        {
          "internalType": "uint256",
          "name": "_id",
          "type": "uint256"
        }
      ],
      "name": "claim",
      "outputs": [],
      "stateMutability": "nonpayable",
      "type": "function"
    },
    {
      "inputs": [
        {
          "internalType": "uint256",
          "name": "_id",
          "type": "uint256"
        }
      ],
      "name": "refund",
      "outputs": [],
      "stateMutability": "nonpayable",
      "type": "function"
    }
  ],
  "bytecode": "0x60a060405234801561001057600080fd5b50604051611afc380380611afc83398101604081905261002f91610040565b6001600160a01b0316608052610070565b60006020828403121561005257600080fd5b81516001600160a01b038116811461006957600080fd5b9392505050565b608051611a556100a7600039600081816101cb0152818161077c015281816109a501528181610e6b01526114830152611a556000f3fe608060405234801561001057600080fd5b50600436106100b45760003560e01c806342aa68761161007157806342aa68761461014c578063711853ab14610175578063937628aa14610188578063aa4fb63a1461019b578063fc0c546a146101c6578063fde327be1461020557600080fd5b806306661abd146100b9578063141961bc146100d55780631add5163146100fe578063278ecde114610111578063379607f51461012657806340e58ee514610139575b600080fd5b6100c260005481565b6040519081526020015b60405180910390f35b6100e86100e3366004611603565b610218565b6040516100cc9a99989796959493929190611669565b6100e861010c366004611714565b610418565b61012461011f366004611603565b610471565b005b610124610134366004611603565b61082a565b610124610147366004611603565b610a4d565b6100c261015a36600461173e565b6001600160a01b031660009081526002602052604090205490565b610124610183366004611760565b610db1565b610124610196366004611839565b610f1e565b6100c26101a93660046118eb565b600360209081526000928352604080842090915290825290205481565b6101ed7f000000000000000000000000000000000000000000000000000000000000000081565b6040516001600160a01b0390911681526020016100cc565b610124610213366004611760565b61137b565b600160208190526000918252604090912080549181015460028201546003830180546001600160a01b0390931693919261025190611917565b80601f016020809104026020016040519081016040528092919081815260200182805461027d90611917565b80156102ca5780601f1061029f576101008083540402835291602001916102ca565b820191906000526020600020905b8154815290600101906020018083116102ad57829003601f168201915b5050505050908060040180546102df90611917565b80601f016020809104026020016040519081016040528092919081815260200182805461030b90611917565b80156103585780601f1061032d57610100808354040283529160200191610358565b820191906000526020600020905b81548152906001019060200180831161033b57829003601f168201915b50505050509080600501805461036d90611917565b80601f016020809104026020016040519081016040528092919081815260200182805461039990611917565b80156103e65780601f106103bb576101008083540402835291602001916103e6565b820191906000526020600020905b8154815290600101906020018083116103c957829003601f168201915b50505050600683015460079093015491929163ffffffff8082169250600160201b82041690600160401b900460ff168a565b6002602052816000526040600020818154811061043457600080fd5b600091825260209091206008909102018054600182015460028301546003840180549396506001600160a01b039092169450929161025190611917565b600081815260016020818152604080842081516101408101835281548152938101546001600160a01b0316928401929092526002820154908301526003810180546060840191906104c190611917565b80601f01602080910402602001604051908101604052809291908181526020018280546104ed90611917565b801561053a5780601f1061050f5761010080835404028352916020019161053a565b820191906000526020600020905b81548152906001019060200180831161051d57829003601f168201915b5050505050815260200160048201805461055390611917565b80601f016020809104026020016040519081016040528092919081815260200182805461057f90611917565b80156105cc5780601f106105a1576101008083540402835291602001916105cc565b820191906000526020600020905b8154815290600101906020018083116105af57829003601f168201915b505050505081526020016005820180546105e590611917565b80601f016020809104026020016040519081016040528092919081815260200182805461061190611917565b801561065e5780601f106106335761010080835404028352916020019161065e565b820191906000526020600020905b81548152906001019060200180831161064157829003601f168201915b50505091835250506006820154602082015260079091015463ffffffff8082166040840152600160201b820481166060840152600160401b90910460ff1615156080909201919091526101008201519192501642116106f05760405162461bcd60e51b81526020600482015260096024820152681b9bdd08195b99195960ba1b60448201526064015b60405180910390fd5b80604001518160c00151106107395760405162461bcd60e51b815260206004820152600f60248201526e1c1b195919d959080f8f4819dbd85b608a1b60448201526064016106e7565b600082815260036020908152604080832033808552925280832080549390555163a9059cbb60e01b81526004810191909152602481018290526001600160a01b037f0000000000000000000000000000000000000000000000000000000000000000169063a9059cbb906044016020604051808303816000875af11580156107c5573d6000803e3d6000fd5b505050506040513d601f19601f820116820180604052508101906107e99190611951565b50604080518481526020810183905233917f21e12a7cad0da5928167e1084ea4d5fdf8d9af66657a2543a9ac76a0ca081477910160405180910390a2505050565b6000818152600160208190526040909120908101546001600160a01b031633146108845760405162461bcd60e51b815260206004820152600b60248201526a3737ba1031b932b0ba37b960a91b60448201526064016106e7565b6007810154600160201b900463ffffffff1642116108d05760405162461bcd60e51b81526020600482015260096024820152681b9bdd08195b99195960ba1b60448201526064016106e7565b8060020154816006015410156109195760405162461bcd60e51b815260206004820152600e60248201526d1c1b195919d959080f0819dbd85b60921b60448201526064016106e7565b6007810154600160401b900460ff161561095f5760405162461bcd60e51b815260206004820152600760248201526618db185a5b595960ca1b60448201526064016106e7565b60078101805460ff60401b1916600160401b1790556001810154600682015460405163a9059cbb60e01b81526001600160a01b03928316600482015260248101919091527f00000000000000000000000000000000000000000000000000000000000000009091169063a9059cbb906044016020604051808303816000875af11580156109f0573d6000803e3d6000fd5b505050506040513d601f19601f82011682018060405250810190610a149190611951565b506040518281527f7bb2b3c10797baccb6f8c4791f1edd6ca2f0d028ee0eda64b01a9a57e3a653f7906020015b60405180910390a15050565b600081815260016020818152604080842081516101408101835281548152938101546001600160a01b031692840192909252600282015490830152600381018054606084019190610a9d90611917565b80601f0160208091040260200160405190810160405280929190818152602001828054610ac990611917565b8015610b165780601f10610aeb57610100808354040283529160200191610b16565b820191906000526020600020905b815481529060010190602001808311610af957829003601f168201915b50505050508152602001600482018054610b2f90611917565b80601f0160208091040260200160405190810160405280929190818152602001828054610b5b90611917565b8015610ba85780601f10610b7d57610100808354040283529160200191610ba8565b820191906000526020600020905b815481529060010190602001808311610b8b57829003601f168201915b50505050508152602001600582018054610bc190611917565b80601f0160208091040260200160405190810160405280929190818152602001828054610bed90611917565b8015610c3a5780601f10610c0f57610100808354040283529160200191610c3a565b820191906000526020600020905b815481529060010190602001808311610c1d57829003601f168201915b5050509183525050600682015460208083019190915260079092015463ffffffff8082166040840152600160201b820416606083015260ff600160401b9091041615156080909101528101519091506001600160a01b03163314610cce5760405162461bcd60e51b815260206004820152600b60248201526a3737ba1031b932b0ba37b960a91b60448201526064016106e7565b8060e0015163ffffffff164210610d115760405162461bcd60e51b81526020600482015260076024820152661cdd185c9d195960ca1b60448201526064016106e7565b6000828152600160208190526040822082815590810180546001600160a01b03191690556002810182905590610d4a600383018261152d565b610d5860048301600061152d565b610d6660058301600061152d565b5060006006820155600701805468ffffffffffffffffff191690556040518281527f8bf30e7ff26833413be5f69e1d373744864d600b664204b4a2f9844a8eedb9ed90602001610a41565b60008281526001602052604090206007810154600160201b900463ffffffff16421115610e085760405162461bcd60e51b8152602060048201526005602482015264195b99195960da1b60448201526064016106e7565b81816006016000828254610e1c9190611989565b9091555050600083815260036020908152604080832033845290915281208054849290610e4a908490611989565b909155505060405163a9059cbb60e01b8152336004820152602481018390527f00000000000000000000000000000000000000000000000000000000000000006001600160a01b03169063a9059cbb906044016020604051808303816000875af1158015610ebc573d6000803e3d6000fd5b505050506040513d601f19601f82011682018060405250810190610ee09190611951565b50604051828152339084907f2eeeab891b26a214d1b25749f88a406bdea852bd8c9bfda977e0ef8114c180ba906020015b60405180910390a3505050565b428563ffffffff161015610f655760405162461bcd60e51b815260206004820152600e60248201526d7374617274206174203c206e6f7760901b60448201526064016106e7565b8463ffffffff168463ffffffff161015610fb55760405162461bcd60e51b8152602060048201526011602482015270195b9908185d080f081cdd185c9d08185d607a1b60448201526064016106e7565b610fc2426276a7006119a0565b8463ffffffff16111561100f5760405162461bcd60e51b815260206004820152601560248201527432b7321030ba101f1036b0bc10323ab930ba34b7b760591b60448201526064016106e7565b600160008082825461102191906119a0565b90915550506040805161014081018252600080548083523360208085019182528486018c815260608601888152608087018b905260a087018a905260c0870186905263ffffffff8d811660e08901528c16610100880152610120870186905293855260018083529690942085518155915195820180546001600160a01b0319166001600160a01b039097169690961790955591516002830155518051929391926110d1926003850192019061156a565b50608082015180516110ed91600484019160209091019061156a565b5060a0820151805161110991600584019160209091019061156a565b5060c0820151816006015560e08201518160070160006101000a81548163ffffffff021916908363ffffffff1602179055506101008201518160070160046101000a81548163ffffffff021916908363ffffffff1602179055506101208201518160070160086101000a81548160ff02191690831515021790555090505060026000336001600160a01b03166001600160a01b031681526020019081526020016000206040518061014001604052806000548152602001336001600160a01b03168152602001888152602001838152602001858152602001848152602001600081526020018763ffffffff1681526020018663ffffffff1681526020016000151581525090806001815401808255809150506001900390600052602060002090600802016000909190919091506000820151816000015560208201518160010160006101000a8154816001600160a01b0302191690836001600160a01b0316021790555060408201518160020155606082015181600301908051906020019061129392919061156a565b50608082015180516112af91600484019160209091019061156a565b5060a082015180516112cb91600584019160209091019061156a565b5060c0820151600682015560e082015160079091018054610100840151610120909401511515600160401b0260ff60401b1963ffffffff958616600160201b0267ffffffffffffffff199093169590941694909417179190911691909117905560005460405133917f8681f5882d857bd3137be5c82ad41f01c5f6918b8f1bc2b876011f6e6ce084dd9161136b91908a90889088908c908c908a906119b8565b60405180910390a2505050505050565b6000828152600160205260409020600781015463ffffffff164210156113d15760405162461bcd60e51b815260206004820152600b60248201526a1b9bdd081cdd185c9d195960aa1b60448201526064016106e7565b6007810154600160201b900463ffffffff1642111561141a5760405162461bcd60e51b8152602060048201526005602482015264195b99195960da1b60448201526064016106e7565b8181600601600082825461142e91906119a0565b909155505060008381526003602090815260408083203384529091528120805484929061145c9084906119a0565b90915550506040516323b872dd60e01b8152336004820152306024820152604481018390527f00000000000000000000000000000000000000000000000000000000000000006001600160a01b0316906323b872dd906064016020604051808303816000875af11580156114d4573d6000803e3d6000fd5b505050506040513d601f19601f820116820180604052508101906114f89190611951565b50604051828152339084907f06bdb975df800a73232998e71ed585d536222f1dfeaa622d7f62a23ada686c8290602001610f11565b50805461153990611917565b6000825580601f10611549575050565b601f01602090049060005260206000209081019061156791906115ee565b50565b82805461157690611917565b90600052602060002090601f01602090048101928261159857600085556115de565b82601f106115b157805160ff19168380011785556115de565b828001600101855582156115de579182015b828111156115de5782518255916020019190600101906115c3565b506115ea9291506115ee565b5090565b5b808211156115ea57600081556001016115ef565b60006020828403121561161557600080fd5b5035919050565b6000815180845260005b8181101561164257602081850181015186830182015201611626565b81811115611654576000602083870101525b50601f01601f19169290920160200192915050565b8a81526001600160a01b038a166020820152604081018990526101406060820181905260009061169b8382018b61161c565b905082810360808401526116af818a61161c565b905082810360a08401526116c3818961161c565b60c0840197909752505063ffffffff93841660e082015291909216610100820152901515610120909101529695505050505050565b80356001600160a01b038116811461170f57600080fd5b919050565b6000806040838503121561172757600080fd5b611730836116f8565b946020939093013593505050565b60006020828403121561175057600080fd5b611759826116f8565b9392505050565b6000806040838503121561177357600080fd5b50508035926020909101359150565b803563ffffffff8116811461170f57600080fd5b634e487b7160e01b600052604160045260246000fd5b600082601f8301126117bd57600080fd5b813567ffffffffffffffff808211156117d8576117d8611796565b604051601f8301601f19908116603f0116810190828211818310171561180057611800611796565b8160405283815286602085880101111561181957600080fd5b836020870160208301376000602085830101528094505050505092915050565b60008060008060008060c0878903121561185257600080fd5b8635955061186260208801611782565b945061187060408801611782565b9350606087013567ffffffffffffffff8082111561188d57600080fd5b6118998a838b016117ac565b945060808901359150808211156118af57600080fd5b6118bb8a838b016117ac565b935060a08901359150808211156118d157600080fd5b506118de89828a016117ac565b9150509295509295509295565b600080604083850312156118fe57600080fd5b8235915061190e602084016116f8565b90509250929050565b600181811c9082168061192b57607f821691505b60208210810361194b57634e487b7160e01b600052602260045260246000fd5b50919050565b60006020828403121561196357600080fd5b8151801515811461175957600080fd5b634e487b7160e01b600052601160045260246000fd5b60008282101561199b5761199b611973565b500390565b600082198211156119b3576119b3611973565b500190565b87815286602082015260e0604082015260006119d760e083018861161c565b82810360608401526119e9818861161c565b63ffffffff8781166080860152861660a085015283810360c08501529050611a11818561161c565b9a995050505050505050505056fea2646970667358221220cc42dfe063406435ea2d8836e38aadccb4c83a93a9c025316634ca0124b2b1dd64736f6c634300080d0033",
  "immutableReferences": {
    "624": [
      {
        "length": 32,
        "start": 459
      },
      {
        "length": 32,
        "start": 1916
      },
      {
        "length": 32,
        "start": 2469
      },
      {
        "length": 32,
        "start": 3691
      },
      {
        "length": 32,
        "start": 5251
      }
    ]
  },
  "source": "// SPDX-License-Identifier: MIT\npragma solidity ^0.8.13;\n\ninterface IERC677 {\n    function transfer(address, uint) external returns (bool);\n\n    function transferFrom(\n        address,\n        address,\n        uint\n    ) external returns (bool);\n}\n\ncontract CrowdFundERC677 {\n    event Launch(\n        uint id,\n        address indexed creator,\n        uint goal,\n        string title,\n        string description,\n        uint32 startAt,\n        uint32 endAt,\n        string category\n    );\n    event Cancel(uint id);\n    event Pledge(uint indexed id, address indexed caller, uint amount);\n    event Unpledge(uint indexed id, address indexed caller, uint amount);\n    event Claim(uint id);\n    event Refund(uint id, address indexed caller, uint amount);\n\n    struct Campaign {\n        // Campaign id\n        uint id;\n        // Creator of campaign\n        address creator;\n        // Amount of tokens to raise\n        uint goal;\n        // Category goal\n        string category;\n        // Title for goal\n        string title;\n        // Desc in goal\n        string description;\n        // Total amount pledged\n        uint pledged;\n        // Timestamp of start of campaign\n        uint32 startAt;\n        // Timestamp of end of campaign\n        uint32 endAt;\n        // True if goal was reached and creator has claimed the tokens.\n        bool claimed;\n    }\n\n    IERC677 public immutable token;\n    // Total count of campaigns created.\n    // It is also used to generate id for new campaigns.\n    uint public count;\n    // Mapping from id to Campaign\n    mapping(uint => Campaign) public campaigns;\n    // Mapping from creator addres to Campaign\n    mapping(address => Campaign[]) public campaignsAddress;\n    // Mapping from campaign id => pledger => amount pledged\n    mapping(uint => mapping(address => uint)) public pledgedAmount;\n\n    constructor(address _token) {\n        token = IERC677(_token);\n    }\n\n    function launch(\n        uint _goal,\n        uint32 _startAt,\n        uint32 _endAt,\n        string memory _title,\n        string memory _description,\n        string memory _category\n    ) external {\n        require(_startAt >= block.timestamp, \"start at < now\");\n        require(_endAt >= _startAt, \"end at < start at\");\n        require(_endAt <= block.timestamp + 90 days, \"end at > max duration\");\n\n        count += 1;\n        campaigns[count] = Campaign({\n            id: count,\n            creator: msg.sender,\n            goal: _goal,\n            title: _title,\n            description: _description,\n            pledged: 0,\n            startAt: _startAt,\n            endAt: _endAt,\n            claimed: false,\n            category: _category\n        });\n\n        campaignsAddress[msg.sender].push(Campaign({\n            id: count,\n            creator: msg.sender,\n            goal: _goal,\n            title: _title,\n            description: _description,\n            pledged: 0,\n            startAt: _startAt,\n            endAt: _endAt,\n            claimed: false,\n            category: _category\n        }));\n\n        emit Launch(count, msg.sender, _goal, _title, _description, _startAt, _endAt, _category);\n    }\n\n    function creatorCamps(address _add) public view returns (uint) {\n        return campaignsAddress[_add].length;\n    }\n\n    function cancel(uint _id) external {\n        Campaign memory campaign = campaigns[_id];\n        require(campaign.creator == msg.sender, \"not creator\");\n        require(block.timestamp < campaign.startAt, \"started\");\n\n        delete campaigns[_id];\n        emit Cancel(_id);\n    }\n\n    function pledge(uint _id, uint _amount) external {\n        Campaign storage campaign = campaigns[_id];\n        require(block.timestamp >= campaign.startAt, \"not started\");\n        require(block.timestamp <= campaign.endAt, \"ended\");\n\n        campaign.pledged += _amount;\n        pledgedAmount[_id][msg.sender] += _amount;\n        token.transferFrom(msg.sender, address(this), _amount);\n\n        emit Pledge(_id, msg.sender, _amount);\n    }\n\n    function unpledge(uint _id, uint _amount) external {\n        Campaign storage campaign = campaigns[_id];\n        require(block.timestamp <= campaign.endAt, \"ended\");\n\n        campaign.pledged -= _amount;\n        pledgedAmount[_id][msg.sender] -= _amount;\n        token.transfer(msg.sender, _amount);\n\n        emit Unpledge(_id, msg.sender, _amount);\n    }\n\n    function claim(uint _id) external {\n        Campaign storage campaign = campaigns[_id];\n        require(campaign.creator == msg.sender, \"not creator\");\n        require(block.timestamp > campaign.endAt, \"not ended\");\n        require(campaign.pledged >= campaign.goal, \"pledged < goal\");\n        require(!campaign.claimed, \"claimed\");\n\n        campaign.claimed = true;\n        token.transfer(campaign.creator, campaign.pledged);\n\n        emit Claim(_id);\n    }\n\n    function refund(uint _id) external {\n        Campaign memory campaign = campaigns[_id];\n        require(block.timestamp > campaign.endAt, \"not ended\");\n        require(campaign.pledged < campaign.goal, \"pledged >= goal\");\n\n        uint bal = pledgedAmount[_id][msg.sender];\n        pledgedAmount[_id][msg.sender] = 0;\n        token.transfer(msg.sender, bal);\n\n        emit Refund(_id, msg.sender, bal);\n    }\n}\n",
  "sourcePath": "D:\\repos\\bitcoffee\\contracts\\CrowdFundERC677.sol",
  "compiler": {
    "name": "solc",
    "version": "0.8.13+commit.abaa5c0e.Emscripten.clang"
  },
  "schemaVersion": "3.4.10",
  "updatedAt": "2022-10-16T18:27:29.704Z",
  "networkType": "ethereum",
  "devdoc": {
    "kind": "dev",
    "methods": {},
    "version": 1
  },
  "userdoc": {
    "kind": "user",
    "methods": {},
    "version": 1
  }
}