{
  "contractName": "CrowdFund",
  "abi": [
    {
      "inputs": [
        {
          "internalType": "address",
          "name": "_token",
          "type": "address"
        }
      ],
      "stateMutability": "nonpayable",
      "type": "constructor"
    },
    {
      "anonymous": false,
      "inputs": [
        {
          "indexed": false,
          "internalType": "uint256",
          "name": "id",
          "type": "uint256"
        }
      ],
      "name": "Cancel",
      "type": "event"
    },
    {
      "anonymous": false,
      "inputs": [
        {
          "indexed": false,
          "internalType": "uint256",
          "name": "id",
          "type": "uint256"
        }
      ],
      "name": "Claim",
      "type": "event"
    },
    {
      "anonymous": false,
      "inputs": [
        {
          "indexed": false,
          "internalType": "uint256",
          "name": "id",
          "type": "uint256"
        },
        {
          "indexed": true,
          "internalType": "address",
          "name": "creator",
          "type": "address"
        },
        {
          "indexed": false,
          "internalType": "uint256",
          "name": "goal",
          "type": "uint256"
        },
        {
          "indexed": false,
          "internalType": "string",
          "name": "title",
          "type": "string"
        },
        {
          "indexed": false,
          "internalType": "string",
          "name": "description",
          "type": "string"
        },
        {
          "indexed": false,
          "internalType": "uint32",
          "name": "startAt",
          "type": "uint32"
        },
        {
          "indexed": false,
          "internalType": "uint32",
          "name": "endAt",
          "type": "uint32"
        },
        {
          "indexed": false,
          "internalType": "uint256",
          "name": "category",
          "type": "uint256"
        }
      ],
      "name": "Launch",
      "type": "event"
    },
    {
      "anonymous": false,
      "inputs": [
        {
          "indexed": true,
          "internalType": "uint256",
          "name": "id",
          "type": "uint256"
        },
        {
          "indexed": true,
          "internalType": "address",
          "name": "caller",
          "type": "address"
        },
        {
          "indexed": false,
          "internalType": "uint256",
          "name": "amount",
          "type": "uint256"
        }
      ],
      "name": "Pledge",
      "type": "event"
    },
    {
      "anonymous": false,
      "inputs": [
        {
          "indexed": false,
          "internalType": "uint256",
          "name": "id",
          "type": "uint256"
        },
        {
          "indexed": true,
          "internalType": "address",
          "name": "caller",
          "type": "address"
        },
        {
          "indexed": false,
          "internalType": "uint256",
          "name": "amount",
          "type": "uint256"
        }
      ],
      "name": "Refund",
      "type": "event"
    },
    {
      "anonymous": false,
      "inputs": [
        {
          "indexed": true,
          "internalType": "uint256",
          "name": "id",
          "type": "uint256"
        },
        {
          "indexed": true,
          "internalType": "address",
          "name": "caller",
          "type": "address"
        },
        {
          "indexed": false,
          "internalType": "uint256",
          "name": "amount",
          "type": "uint256"
        }
      ],
      "name": "Unpledge",
      "type": "event"
    },
    {
      "inputs": [
        {
          "internalType": "uint256",
          "name": "",
          "type": "uint256"
        }
      ],
      "name": "campaigns",
      "outputs": [
        {
          "internalType": "uint256",
          "name": "id",
          "type": "uint256"
        },
        {
          "internalType": "address",
          "name": "creator",
          "type": "address"
        },
        {
          "internalType": "uint256",
          "name": "goal",
          "type": "uint256"
        },
        {
          "internalType": "uint256",
          "name": "category",
          "type": "uint256"
        },
        {
          "internalType": "string",
          "name": "title",
          "type": "string"
        },
        {
          "internalType": "string",
          "name": "description",
          "type": "string"
        },
        {
          "internalType": "uint256",
          "name": "pledged",
          "type": "uint256"
        },
        {
          "internalType": "uint32",
          "name": "startAt",
          "type": "uint32"
        },
        {
          "internalType": "uint32",
          "name": "endAt",
          "type": "uint32"
        },
        {
          "internalType": "bool",
          "name": "claimed",
          "type": "bool"
        }
      ],
      "stateMutability": "view",
      "type": "function",
      "constant": true
    },
    {
      "inputs": [
        {
          "internalType": "address",
          "name": "",
          "type": "address"
        },
        {
          "internalType": "uint256",
          "name": "",
          "type": "uint256"
        }
      ],
      "name": "campaignsAddress",
      "outputs": [
        {
          "internalType": "uint256",
          "name": "id",
          "type": "uint256"
        },
        {
          "internalType": "address",
          "name": "creator",
          "type": "address"
        },
        {
          "internalType": "uint256",
          "name": "goal",
          "type": "uint256"
        },
        {
          "internalType": "uint256",
          "name": "category",
          "type": "uint256"
        },
        {
          "internalType": "string",
          "name": "title",
          "type": "string"
        },
        {
          "internalType": "string",
          "name": "description",
          "type": "string"
        },
        {
          "internalType": "uint256",
          "name": "pledged",
          "type": "uint256"
        },
        {
          "internalType": "uint32",
          "name": "startAt",
          "type": "uint32"
        },
        {
          "internalType": "uint32",
          "name": "endAt",
          "type": "uint32"
        },
        {
          "internalType": "bool",
          "name": "claimed",
          "type": "bool"
        }
      ],
      "stateMutability": "view",
      "type": "function",
      "constant": true
    },
    {
      "inputs": [],
      "name": "count",
      "outputs": [
        {
          "internalType": "uint256",
          "name": "",
          "type": "uint256"
        }
      ],
      "stateMutability": "view",
      "type": "function",
      "constant": true
    },
    {
      "inputs": [
        {
          "internalType": "uint256",
          "name": "",
          "type": "uint256"
        },
        {
          "internalType": "address",
          "name": "",
          "type": "address"
        }
      ],
      "name": "pledgedAmount",
      "outputs": [
        {
          "internalType": "uint256",
          "name": "",
          "type": "uint256"
        }
      ],
      "stateMutability": "view",
      "type": "function",
      "constant": true
    },
    {
      "inputs": [],
      "name": "token",
      "outputs": [
        {
          "internalType": "contract IERC677",
          "name": "",
          "type": "address"
        }
      ],
      "stateMutability": "view",
      "type": "function",
      "constant": true
    },
    {
      "inputs": [
        {
          "internalType": "uint256",
          "name": "_goal",
          "type": "uint256"
        },
        {
          "internalType": "uint32",
          "name": "_startAt",
          "type": "uint32"
        },
        {
          "internalType": "uint32",
          "name": "_endAt",
          "type": "uint32"
        },
        {
          "internalType": "string",
          "name": "_title",
          "type": "string"
        },
        {
          "internalType": "string",
          "name": "_description",
          "type": "string"
        },
        {
          "internalType": "uint256",
          "name": "_category",
          "type": "uint256"
        }
      ],
      "name": "launch",
      "outputs": [],
      "stateMutability": "nonpayable",
      "type": "function"
    },
    {
      "inputs": [
        {
          "internalType": "address",
          "name": "_add",
          "type": "address"
        }
      ],
      "name": "creatorCamps",
      "outputs": [
        {
          "internalType": "uint256",
          "name": "",
          "type": "uint256"
        }
      ],
      "stateMutability": "view",
      "type": "function",
      "constant": true
    },
    {
      "inputs": [
        {
          "internalType": "uint256",
          "name": "_id",
          "type": "uint256"
        }
      ],
      "name": "cancel",
      "outputs": [],
      "stateMutability": "nonpayable",
      "type": "function"
    },
    {
      "inputs": [
        {
          "internalType": "uint256",
          "name": "_id",
          "type": "uint256"
        },
        {
          "internalType": "uint256",
          "name": "_amount",
          "type": "uint256"
        }
      ],
      "name": "pledge",
      "outputs": [],
      "stateMutability": "nonpayable",
      "type": "function"
    },
    {
      "inputs": [
        {
          "internalType": "uint256",
          "name": "_id",
          "type": "uint256"
        },
        {
          "internalType": "uint256",
          "name": "_amount",
          "type": "uint256"
        }
      ],
      "name": "unpledge",
      "outputs": [],
      "stateMutability": "nonpayable",
      "type": "function"
    },
    {
      "inputs": [
        {
          "internalType": "uint256",
          "name": "_id",
          "type": "uint256"
        }
      ],
      "name": "claim",
      "outputs": [],
      "stateMutability": "nonpayable",
      "type": "function"
    },
    {
      "inputs": [
        {
          "internalType": "uint256",
          "name": "_id",
          "type": "uint256"
        }
      ],
      "name": "refund",
      "outputs": [],
      "stateMutability": "nonpayable",
      "type": "function"
    }
  ],
  "bytecode": "0x60a060405234801561001057600080fd5b5060405161190338038061190383398101604081905261002f91610040565b6001600160a01b0316608052610070565b60006020828403121561005257600080fd5b81516001600160a01b038116811461006957600080fd5b9392505050565b60805161185c6100a7600039600081816101cb01528181610678015281816108a10152818161110e01526112c9015261185c6000f3fe608060405234801561001057600080fd5b50600436106100b45760003560e01c806342aa68761161007157806342aa68761461014c5780634fccadfb14610175578063711853ab14610188578063aa4fb63a1461019b578063fc0c546a146101c6578063fde327be1461020557600080fd5b806306661abd146100b9578063141961bc146100d55780631add5163146100fe578063278ecde114610111578063379607f51461012657806340e58ee514610139575b600080fd5b6100c260005481565b6040519081526020015b60405180910390f35b6100e86100e3366004611449565b610218565b6040516100cc9a999897969594939291906114af565b6100e861010c366004611548565b610392565b61012461011f366004611449565b6103f5565b005b610124610134366004611449565b610726565b610124610147366004611449565b610949565b6100c261015a366004611572565b6001600160a01b031660009081526002602052604090205490565b61012461018336600461164b565b610c1e565b6101246101963660046116e2565b611054565b6100c26101a9366004611704565b600360209081526000928352604080842090915290825290205481565b6101ed7f000000000000000000000000000000000000000000000000000000000000000081565b6040516001600160a01b0390911681526020016100cc565b6101246102133660046116e2565b6111c1565b6001602081905260009182526040909120805491810154600282015460038301546004840180546001600160a01b0390941694929391929161025990611730565b80601f016020809104026020016040519081016040528092919081815260200182805461028590611730565b80156102d25780601f106102a7576101008083540402835291602001916102d2565b820191906000526020600020905b8154815290600101906020018083116102b557829003601f168201915b5050505050908060050180546102e790611730565b80601f016020809104026020016040519081016040528092919081815260200182805461031390611730565b80156103605780601f1061033557610100808354040283529160200191610360565b820191906000526020600020905b81548152906001019060200180831161034357829003601f168201915b50505050600683015460079093015491929163ffffffff8082169250600160201b82041690600160401b900460ff168a565b600260205281600052604060002081815481106103ae57600080fd5b6000918252602090912060089091020180546001820154600283015460038401546004850180549497506001600160a01b0390931695509093909290919061025990611730565b600081815260016020818152604080842081516101408101835281548152938101546001600160a01b0316928401929092526002820154908301526003810154606083015260048101805460808401919061044f90611730565b80601f016020809104026020016040519081016040528092919081815260200182805461047b90611730565b80156104c85780601f1061049d576101008083540402835291602001916104c8565b820191906000526020600020905b8154815290600101906020018083116104ab57829003601f168201915b505050505081526020016005820180546104e190611730565b80601f016020809104026020016040519081016040528092919081815260200182805461050d90611730565b801561055a5780601f1061052f5761010080835404028352916020019161055a565b820191906000526020600020905b81548152906001019060200180831161053d57829003601f168201915b50505091835250506006820154602082015260079091015463ffffffff8082166040840152600160201b820481166060840152600160401b90910460ff1615156080909201919091526101008201519192501642116105ec5760405162461bcd60e51b81526020600482015260096024820152681b9bdd08195b99195960ba1b60448201526064015b60405180910390fd5b80604001518160c00151106106355760405162461bcd60e51b815260206004820152600f60248201526e1c1b195919d959080f8f4819dbd85b608a1b60448201526064016105e3565b600082815260036020908152604080832033808552925280832080549390555163a9059cbb60e01b81526004810191909152602481018290526001600160a01b037f0000000000000000000000000000000000000000000000000000000000000000169063a9059cbb906044016020604051808303816000875af11580156106c1573d6000803e3d6000fd5b505050506040513d601f19601f820116820180604052508101906106e5919061176a565b50604080518481526020810183905233917f21e12a7cad0da5928167e1084ea4d5fdf8d9af66657a2543a9ac76a0ca081477910160405180910390a2505050565b6000818152600160208190526040909120908101546001600160a01b031633146107805760405162461bcd60e51b815260206004820152600b60248201526a3737ba1031b932b0ba37b960a91b60448201526064016105e3565b6007810154600160201b900463ffffffff1642116107cc5760405162461bcd60e51b81526020600482015260096024820152681b9bdd08195b99195960ba1b60448201526064016105e3565b8060020154816006015410156108155760405162461bcd60e51b815260206004820152600e60248201526d1c1b195919d959080f0819dbd85b60921b60448201526064016105e3565b6007810154600160401b900460ff161561085b5760405162461bcd60e51b815260206004820152600760248201526618db185a5b595960ca1b60448201526064016105e3565b60078101805460ff60401b1916600160401b1790556001810154600682015460405163a9059cbb60e01b81526001600160a01b03928316600482015260248101919091527f00000000000000000000000000000000000000000000000000000000000000009091169063a9059cbb906044016020604051808303816000875af11580156108ec573d6000803e3d6000fd5b505050506040513d601f19601f82011682018060405250810190610910919061176a565b506040518281527f7bb2b3c10797baccb6f8c4791f1edd6ca2f0d028ee0eda64b01a9a57e3a653f7906020015b60405180910390a15050565b600081815260016020818152604080842081516101408101835281548152938101546001600160a01b031692840192909252600282015490830152600381015460608301526004810180546080840191906109a390611730565b80601f01602080910402602001604051908101604052809291908181526020018280546109cf90611730565b8015610a1c5780601f106109f157610100808354040283529160200191610a1c565b820191906000526020600020905b8154815290600101906020018083116109ff57829003601f168201915b50505050508152602001600582018054610a3590611730565b80601f0160208091040260200160405190810160405280929190818152602001828054610a6190611730565b8015610aae5780601f10610a8357610100808354040283529160200191610aae565b820191906000526020600020905b815481529060010190602001808311610a9157829003601f168201915b5050509183525050600682015460208083019190915260079092015463ffffffff8082166040840152600160201b820416606083015260ff600160401b9091041615156080909101528101519091506001600160a01b03163314610b425760405162461bcd60e51b815260206004820152600b60248201526a3737ba1031b932b0ba37b960a91b60448201526064016105e3565b8060e0015163ffffffff164210610b855760405162461bcd60e51b81526020600482015260076024820152661cdd185c9d195960ca1b60448201526064016105e3565b6000828152600160208190526040822082815590810180546001600160a01b0319169055600281018290556003810182905590610bc56004830182611373565b610bd3600583016000611373565b5060006006820155600701805468ffffffffffffffffff191690556040518281527f8bf30e7ff26833413be5f69e1d373744864d600b664204b4a2f9844a8eedb9ed9060200161093d565b428563ffffffff161015610c655760405162461bcd60e51b815260206004820152600e60248201526d7374617274206174203c206e6f7760901b60448201526064016105e3565b8463ffffffff168463ffffffff161015610cb55760405162461bcd60e51b8152602060048201526011602482015270195b9908185d080f081cdd185c9d08185d607a1b60448201526064016105e3565b610cc2426276a7006117a2565b8463ffffffff161115610d0f5760405162461bcd60e51b815260206004820152601560248201527432b7321030ba101f1036b0bc10323ab930ba34b7b760591b60448201526064016105e3565b6001600080828254610d2191906117a2565b90915550506040805161014081018252600080548083523360208085019182528486018c815260608601888152608087018b815260a088018b905260c0880187905263ffffffff8e811660e08a01528d16610100890152610120880187905294865260018084529790952086518155925196830180546001600160a01b0319166001600160a01b0390981697909717909655945160028201559151600383015551805192939192610dd892600485019201906113b0565b5060a08201518051610df49160058401916020909101906113b0565b5060c0820151816006015560e08201518160070160006101000a81548163ffffffff021916908363ffffffff1602179055506101008201518160070160046101000a81548163ffffffff021916908363ffffffff1602179055506101208201518160070160086101000a81548160ff02191690831515021790555090505060026000336001600160a01b03166001600160a01b031681526020019081526020016000206040518061014001604052806000548152602001336001600160a01b03168152602001888152602001838152602001858152602001848152602001600081526020018763ffffffff1681526020018663ffffffff1681526020016000151581525090806001815401808255809150506001900390600052602060002090600802016000909190919091506000820151816000015560208201518160010160006101000a8154816001600160a01b0302191690836001600160a01b0316021790555060408201518160020155606082015181600301556080820151816004019080519060200190610f889291906113b0565b5060a08201518051610fa49160058401916020909101906113b0565b5060c0820151600682015560e082015160079091018054610100840151610120909401511515600160401b0260ff60401b1963ffffffff958616600160201b0267ffffffffffffffff199093169590941694909417179190911691909117905560005460405133917f77d91e7422af12c968468568790f8a4f79bceef79b83a1a1368e13892bfd43eb9161104491908a90889088908c908c908a906117ba565b60405180910390a2505050505050565b60008281526001602052604090206007810154600160201b900463ffffffff164211156110ab5760405162461bcd60e51b8152602060048201526005602482015264195b99195960da1b60448201526064016105e3565b818160060160008282546110bf919061180f565b90915550506000838152600360209081526040808320338452909152812080548492906110ed90849061180f565b909155505060405163a9059cbb60e01b8152336004820152602481018390527f00000000000000000000000000000000000000000000000000000000000000006001600160a01b03169063a9059cbb906044016020604051808303816000875af115801561115f573d6000803e3d6000fd5b505050506040513d601f19601f82011682018060405250810190611183919061176a565b50604051828152339084907f2eeeab891b26a214d1b25749f88a406bdea852bd8c9bfda977e0ef8114c180ba906020015b60405180910390a3505050565b6000828152600160205260409020600781015463ffffffff164210156112175760405162461bcd60e51b815260206004820152600b60248201526a1b9bdd081cdd185c9d195960aa1b60448201526064016105e3565b6007810154600160201b900463ffffffff164211156112605760405162461bcd60e51b8152602060048201526005602482015264195b99195960da1b60448201526064016105e3565b8181600601600082825461127491906117a2565b90915550506000838152600360209081526040808320338452909152812080548492906112a29084906117a2565b90915550506040516323b872dd60e01b8152336004820152306024820152604481018390527f00000000000000000000000000000000000000000000000000000000000000006001600160a01b0316906323b872dd906064016020604051808303816000875af115801561131a573d6000803e3d6000fd5b505050506040513d601f19601f8201168201806040525081019061133e919061176a565b50604051828152339084907f06bdb975df800a73232998e71ed585d536222f1dfeaa622d7f62a23ada686c82906020016111b4565b50805461137f90611730565b6000825580601f1061138f575050565b601f0160209004906000526020600020908101906113ad9190611434565b50565b8280546113bc90611730565b90600052602060002090601f0160209004810192826113de5760008555611424565b82601f106113f757805160ff1916838001178555611424565b82800160010185558215611424579182015b82811115611424578251825591602001919060010190611409565b50611430929150611434565b5090565b5b808211156114305760008155600101611435565b60006020828403121561145b57600080fd5b5035919050565b6000815180845260005b818110156114885760208185018101518683018201520161146c565b8181111561149a576000602083870101525b50601f01601f19169290920160200192915050565b60006101408c835260018060a01b038c1660208401528a60408401528960608401528060808401526114e38184018a611462565b905082810360a08401526114f78189611462565b60c0840197909752505063ffffffff93841660e082015291909216610100820152901515610120909101529695505050505050565b80356001600160a01b038116811461154357600080fd5b919050565b6000806040838503121561155b57600080fd5b6115648361152c565b946020939093013593505050565b60006020828403121561158457600080fd5b61158d8261152c565b9392505050565b803563ffffffff8116811461154357600080fd5b634e487b7160e01b600052604160045260246000fd5b600082601f8301126115cf57600080fd5b813567ffffffffffffffff808211156115ea576115ea6115a8565b604051601f8301601f19908116603f01168101908282118183101715611612576116126115a8565b8160405283815286602085880101111561162b57600080fd5b836020870160208301376000602085830101528094505050505092915050565b60008060008060008060c0878903121561166457600080fd5b8635955061167460208801611594565b945061168260408801611594565b9350606087013567ffffffffffffffff8082111561169f57600080fd5b6116ab8a838b016115be565b945060808901359150808211156116c157600080fd5b506116ce89828a016115be565b92505060a087013590509295509295509295565b600080604083850312156116f557600080fd5b50508035926020909101359150565b6000806040838503121561171757600080fd5b823591506117276020840161152c565b90509250929050565b600181811c9082168061174457607f821691505b60208210810361176457634e487b7160e01b600052602260045260246000fd5b50919050565b60006020828403121561177c57600080fd5b8151801515811461158d57600080fd5b634e487b7160e01b600052601160045260246000fd5b600082198211156117b5576117b561178c565b500190565b87815286602082015260e0604082015260006117d960e0830188611462565b82810360608401526117eb8188611462565b63ffffffff96871660808501529490951660a08301525060c0015295945050505050565b6000828210156118215761182161178c565b50039056fea26469706673582212205e537b7484542985553c3aaa6919d7e84ae6a3fce68013712be54fe89737f86164736f6c634300080d0033",
  "immutableReferences": {
    "631": [
      {
        "length": 32,
        "start": 459
      },
      {
        "length": 32,
        "start": 1656
      },
      {
        "length": 32,
        "start": 2209
      },
      {
        "length": 32,
        "start": 4366
      },
      {
        "length": 32,
        "start": 4809
      }
    ]
  },
  "source": "// SPDX-License-Identifier: MIT\npragma solidity ^0.8.13;\n\ninterface IERC677 {\n    function transfer(address, uint) external returns (bool);\n\n    function transferFrom(\n        address,\n        address,\n        uint\n    ) external returns (bool);\n}\n\ncontract CrowdFund {\n    event Launch(\n        uint id,\n        address indexed creator,\n        uint goal,\n        string title,\n        string description,\n        uint32 startAt,\n        uint32 endAt,\n        uint category\n    );\n    event Cancel(uint id);\n    event Pledge(uint indexed id, address indexed caller, uint amount);\n    event Unpledge(uint indexed id, address indexed caller, uint amount);\n    event Claim(uint id);\n    event Refund(uint id, address indexed caller, uint amount);\n\n    struct Campaign {\n        // Campaign id\n        uint id;\n        // Creator of campaign\n        address creator;\n        // Amount of tokens to raise\n        uint goal;\n        // Category goal\n        uint category;\n        // Title for goal\n        string title;\n        // Desc in goal\n        string description;\n        // Total amount pledged\n        uint pledged;\n        // Timestamp of start of campaign\n        uint32 startAt;\n        // Timestamp of end of campaign\n        uint32 endAt;\n        // True if goal was reached and creator has claimed the tokens.\n        bool claimed;\n    }\n\n    IERC677 public immutable token;\n    // Total count of campaigns created.\n    // It is also used to generate id for new campaigns.\n    uint public count;\n    // Mapping from id to Campaign\n    mapping(uint => Campaign) public campaigns;\n    // Mapping from creator addres to Campaign\n    mapping(address => Campaign[]) public campaignsAddress;\n    // Mapping from campaign id => pledger => amount pledged\n    mapping(uint => mapping(address => uint)) public pledgedAmount;\n\n    constructor(address _token) {\n        token = IERC677(_token);\n    }\n\n    function launch(\n        uint _goal,\n        uint32 _startAt,\n        uint32 _endAt,\n        string memory _title,\n        string memory _description,\n        uint _category\n    ) external {\n        require(_category >= 0, \"invalid category\");\n        require(_startAt >= block.timestamp, \"start at < now\");\n        require(_endAt >= _startAt, \"end at < start at\");\n        require(_endAt <= block.timestamp + 90 days, \"end at > max duration\");\n\n        count += 1;\n        campaigns[count] = Campaign({\n            id: count,\n            creator: msg.sender,\n            goal: _goal,\n            title: _title,\n            description: _description,\n            pledged: 0,\n            startAt: _startAt,\n            endAt: _endAt,\n            claimed: false,\n            category: _category\n        });\n\n        campaignsAddress[msg.sender].push(Campaign({\n            id: count,\n            creator: msg.sender,\n            goal: _goal,\n            title: _title,\n            description: _description,\n            pledged: 0,\n            startAt: _startAt,\n            endAt: _endAt,\n            claimed: false,\n            category: _category\n        }));\n\n        emit Launch(count, msg.sender, _goal, _title, _description, _startAt, _endAt, _category);\n    }\n\n    function creatorCamps(address _add) public view returns (uint) {\n        return campaignsAddress[_add].length;\n    }\n\n    function cancel(uint _id) external {\n        Campaign memory campaign = campaigns[_id];\n        require(campaign.creator == msg.sender, \"not creator\");\n        require(block.timestamp < campaign.startAt, \"started\");\n\n        delete campaigns[_id];\n        emit Cancel(_id);\n    }\n\n    function pledge(uint _id, uint _amount) external {\n        Campaign storage campaign = campaigns[_id];\n        require(block.timestamp >= campaign.startAt, \"not started\");\n        require(block.timestamp <= campaign.endAt, \"ended\");\n\n        campaign.pledged += _amount;\n        pledgedAmount[_id][msg.sender] += _amount;\n        token.transferFrom(msg.sender, address(this), _amount);\n\n        emit Pledge(_id, msg.sender, _amount);\n    }\n\n    function unpledge(uint _id, uint _amount) external {\n        Campaign storage campaign = campaigns[_id];\n        require(block.timestamp <= campaign.endAt, \"ended\");\n\n        campaign.pledged -= _amount;\n        pledgedAmount[_id][msg.sender] -= _amount;\n        token.transfer(msg.sender, _amount);\n\n        emit Unpledge(_id, msg.sender, _amount);\n    }\n\n    function claim(uint _id) external {\n        Campaign storage campaign = campaigns[_id];\n        require(campaign.creator == msg.sender, \"not creator\");\n        require(block.timestamp > campaign.endAt, \"not ended\");\n        require(campaign.pledged >= campaign.goal, \"pledged < goal\");\n        require(!campaign.claimed, \"claimed\");\n\n        campaign.claimed = true;\n        token.transfer(campaign.creator, campaign.pledged);\n\n        emit Claim(_id);\n    }\n\n    function refund(uint _id) external {\n        Campaign memory campaign = campaigns[_id];\n        require(block.timestamp > campaign.endAt, \"not ended\");\n        require(campaign.pledged < campaign.goal, \"pledged >= goal\");\n\n        uint bal = pledgedAmount[_id][msg.sender];\n        pledgedAmount[_id][msg.sender] = 0;\n        token.transfer(msg.sender, bal);\n\n        emit Refund(_id, msg.sender, bal);\n    }\n}\n",
  "sourcePath": "D:\\repos\\bitcoffee\\contracts\\CrowdFundERC677.sol",
  "compiler": {
    "name": "solc",
    "version": "0.8.13+commit.abaa5c0e.Emscripten.clang"
  },
  "schemaVersion": "3.4.10",
  "updatedAt": "2022-10-15T18:52:24.908Z",
  "networkType": "ethereum",
  "devdoc": {
    "kind": "dev",
    "methods": {},
    "version": 1
  },
  "userdoc": {
    "kind": "user",
    "methods": {},
    "version": 1
  }
}